:100000000C94A4000C94CC000C94CC000C94CC0068
:100010000C94CC000C94CC000C94CC000C94CC0030
:100020000C94CC000C94CC000C94CC000C94CC0020
:100030000C94CC000C94CC000C94CC000C94CC0010
:100040000C940E0F0C94CC000C947E0F0C94580F53
:100050000C94CC000C94CC000C94CC000C94CC00F0
:100060000C94B00F0C94CC00638253630001080021
:100070000604000145000082000040002076657201
:10008000696669636174696F6E006C6F63616C6847
:100090006F73740000000000240027002A00000095
:1000A0000000250028002B000404040404040404B8
:1000B0000202020202020303030303030102040813
:1000C00010204080010204081020010204081020C2
:1000D0000000000800020100000304070000000007
:1000E00000000000504F535420687474703A2F2F52
:1000F00024462F244620485454502F312E310D0AC7
:10010000486F73743A2024460D0A436F6E74656E0F
:10011000742D4C656E6774683A2024440D0A436F51
:100120006E74656E742D547970653A206170706CD0
:1001300069636174696F6E2F6A736F6E0D0A0D0AC1
:1001400024480000CF10181B11241FBECFEFD8E0A9
:10015000DEBFCDBF27E0A6E3B2E001C01D92AD3700
:10016000B207E1F712E0A0E0B1E0E6E9FBE302C08C
:1001700005900D92A633B107D9F710E0C3EAD0E09D
:1001800004C02197FE010E949F1BC23AD107C9F704
:100190000E942A110C94BE1D0C940000CF93DF9393
:1001A000EC01FB018A30910548F06AE070E00E94A2
:1001B0008B1BCB01BF010E94CE00FC01CE016AE087
:1001C00070E00E948B1B805D80831182CF010196BD
:1001D000DF91CF910895CF93DF93209118062223CA
:1001E000C1F0FC0120812223A1F0C8E1D6E0A4E106
:1001F000B6E09C012C5F3F4F899141919D918427EE
:10020000892339F4E217F307B9F781E0DF91CF9141
:10021000089580E0FBCF90E0FC01E053FF4F249174
:10022000FC01E454FF4F3491FC01E855FF4FE49189
:10023000EE23C9F0222339F0233001F1A8F4213054
:1002400019F1223029F1F0E0EE0FFF1FE256FF4FC7
:10025000A591B4918FB7F894EC91611126C03095B7
:100260003E233C938FBF08952730A9F02830C9F072
:10027000243049F7809180008F7D03C080918000F9
:100280008F7780938000DFCF84B58F7784BDDBCFFD
:1002900084B58F7DFBCF8091B0008F778093B000C5
:1002A000D2CF8091B0008F7DF9CF3E2BDACFCF93A4
:1002B000DF9390E0FC01E454FF4F249188559F4F59
:1002C000FC0184918823D1F090E0880F991FFC01F4
:1002D000EC56FF4FA591B491FC01E256FF4FC5913A
:1002E000D49161110EC09FB7F8948C91E22FE095E4
:1002F0008E238C932881E223E8839FBFDF91CF91E7
:1003000008958FB7F894EC91E22BEC938FBFF6CF62
:100310003FB7F8948091100690911106A0911206B3
:10032000B091130626B5A89B05C02F3F19F0019682
:10033000A11DB11D3FBFBA2FA92F982F8827BC013F
:10034000CD01620F711D811D911D42E0660F771F67
:10035000881F991F4A95D1F708958F929F92AF9267
:10036000BF92CF92DF92EF92FF924B015C010E940D
:1003700088016B017C010E9488016C197D098E093E
:100380009F09683E734081059105A8F321E0821A18
:100390009108A108B10888EEC80E83E0D81EE11CC0
:1003A000F11C81149104A104B10429F7FF90EF908E
:1003B000DF90CF90BF90AF909F908F9008952FB710
:1003C000F89460910C0670910D0680910E06909144
:1003D0000F062FBF0895611108C080933001435D5F
:1003E0005C4F509306064093050681E008950895FA
:1003F00008950895AF92BF92CF92DF92EF92FF924D
:100400000F931F93CF93DF936C017B018B01040F3C
:10041000151FEB015E01AE18BF08C017D10759F0D8
:100420006991D601ED91FC910190F081E02DC6011A
:100430000995892B79F7C501DF91CF911F910F9114
:10044000FF90EF90DF90CF90BF90AF900895FC01A8
:10045000538D448D252F30E0842F90E0821B930B29
:10046000541710F0CF96089501970895FC01918DCF
:10047000828D981761F0A28DAE0FBF2FB11D5D96D2
:100480008C91928D9F5F9F73928F90E008958FEF74
:100490009FEF0895FC01918D828D981731F0828D28
:1004A000E80FF11D858D90E008958FEF9FEF08957F
:1004B000FC01918D228D892F90E0805C9F4F821BE3
:1004C00091098F73992708958EE996E00E9458024A
:1004D00021E0892B09F420E0822F089580E090E04C
:1004E000892B29F00E94640281110C940000089568
:1004F000FC01A48DA80FB92FB11DA35ABF4F2C9199
:10050000848D90E001968F739927848FA689B7898F
:100510002C93A089B1898C91837080648C93938D86
:10052000848D981306C00288F389E02D80818F7D29
:1005300080830895EF92FF920F931F93CF93DF93E1
:10054000EC0181E0888F9B8D8C8D98131AC0E8890F
:10055000F989808185FF15C09FB7F894EE89FF89DE
:100560006083E889F98980818370806480839FBF7C
:1005700081E090E0DF91CF911F910F91FF90EF907C
:100580000895F62E0B8D10E00F5F1F4F0F7311278C
:10059000E02E8C8D8E110CC00FB607FCFACFE889C7
:1005A000F989808185FFF5CFCE010E947802F1CFD5
:1005B000EB8DEC0FFD2FF11DE35AFF4FF0829FB73B
:1005C000F8940B8FEA89FB8980818062CFCFCF932B
:1005D000DF93EC01888D8823B9F0AA89BB89E8896B
:1005E000F9898C9185FD03C0808186FD0DC00FB611
:1005F00007FCF7CF8C9185FFF2CF808185FFEDCF8F
:10060000CE010E947802E9CFDF91CF9108958091C9
:100610003D0390913E03982789279827449720917E
:100620005B0330E044E0359527954A95E1F7220FCA
:10063000331F220F331F821B930B97FF02C090E0E2
:1006400080E008952091510330914F03309351037E
:1006500020934F0320915203309150033093520363
:1006600020935003EDE2F3E021A5820F911D25A513
:1006700085A7662381F021A7892F9927319723E049
:10068000E932F20789F710925F031092600380E568
:1006900080935B03089511A6EFCF0F931F93CF9321
:1006A000DF9370E0635D7C4F8A01075F1F4F21304D
:1006B00029F0223031F48A010250110930E020E0A3
:1006C00003C000E010E09801EB01FA01E230F1050F
:1006D00058F0A991B991BA27AB27BA270A0F1B1F67
:1006E000211D311D3297F2CFFA01EE7F6E0F7F1F71
:1006F0004E175F0769F0FB01408150E070E060E059
:10070000762F652F542F4427040F151F261F371FE0
:10071000A90166277727411551056105710519F073
:1007200022273327F1CF00951095E82FF0E0E35D05
:10073000FC4F10830183DF91CF911F910F9108959A
:10074000EDE2F3E0108E118E80E4848B158A868BA7
:1007500020E044E150E06EE088E10C944D03CF933B
:10076000DF93E4EFF2E030E020E0822F91919923D3
:1007700061F170E060E0492F50E0A62FEA01062EFB
:1007800002C0D595C7950A94E2F7C0FF19C02C5056
:100790003D4F41E050E060E070E00A2E04C0440F9D
:1007A000551F661F771F0A94D2F740954923F90118
:1007B0004083880F880F880F8A0FDF91CF910895AB
:1007C0006F5F7F4F68307105C1F62F5F3F4F273055
:1007D000310559F680E0F1CF8EBD0DB407FEFDCF97
:1007E000089561E08091F3020E940B0178940895CE
:1007F000F89460E08091F3020C940B010F931F9327
:10080000CF93DF938C01EB010E94F80301151105D2
:10081000A1F08AE70E94EC03FE0181918EBDC00F1A
:10082000D11FEC17FD0731F081910DB407FEFDCF0C
:100830008EBDF7CF0DB407FEFDCFDF91CF911F9195
:100840000F910C94F1030F931F93CF93DF93EC015F
:100850008B010E94F8032097B9F08AE30E94EC0311
:100860001EBCF801CE01019739F00DB407FEFDCF93
:100870002EB51EBC2193F7CF2197C00FD11F0DB409
:1008800007FEFDCF8EB58883DF91CF911F910F9129
:100890000C94F1031F93CF93DF93182FC62FD42FFF
:1008A0000E94F8038C2F8F71812B0E94EC038D2FF7
:1008B0000E94EC03DF91CF911F910C94F103CF9331
:1008C000C82FC0768091EA028C1799F043E06FE15F
:1008D00080EA0E944A04C093EA024C2F50E085E06F
:1008E000559547958A95E1F76FE180E8CF910C9493
:1008F0004A04CF910895CF93DF93C82FD62F0E943B
:100900005F044D2F6C2F80E4DF91CF910C944A044B
:10091000CF93DF93C82FD72F0E947B046D2F81E0E8
:100920008C0FDF91CF910C947B04FF920F931F9358
:10093000CF93DF93082F10E091E4899FF0011124F9
:10094000E45AF94F2081261709F44EC0C62FD82F3C
:1009500081113DC080E4289F90011124B9017E5E81
:10096000213C3D4048F482E00E9488046CE176E03E
:1009700080E490E00E94FE0380919D068C1303C0EA
:100980008FEF80939D0681E4F82EF09EF001F19E9A
:10099000F00D1124E45AF94FC08380E4C89F900100
:1009A0001124B9017E5E213C3D40F0F480E00E94BC
:1009B0008804DF9DB0011124645E794F80E490E0EB
:1009C000DF91CF911F910F91FF900C9423048091A0
:1009D0005C068613D8CF81E4ECE1F6E0ADE5B6E045
:1009E00001900D928A95E1F7DF91CF911F910F91C0
:1009F000FF900895CF93DF931F92CDB7DEB7198292
:100A000020E4829FC00111249E5E680F792F711D22
:100A1000CB01925181159E4050F480E00E948804E1
:100A2000BE016F5F7F4F81E090E00E9423048981C7
:100A30000F90DF91CF910895CF93DF93FC01C48194
:100A4000FFE3CF9FE0011124FC01868190915C06B9
:100A5000891309C080915A068C0F9D2F911D039711
:100A6000DF91CF91089590919D06891303C08091E5
:100A70009B06F2CF6EE30E94FA04EECFCF93C82F0D
:100A80000E945F040E94F8038C2F8F710E94EC0378
:100A900080E00E94EC03C7FF03C080E00E94EC03EB
:100AA000CEB50E94F1038C2FCF910895CF93DF93A1
:100AB000EC0140E86FE180E80E944A0440E86FE101
:100AC00080EA0E944A044AE06CE180EA0E944A04FB
:100AD00060E07CE082E00E948804BE01745F86E0F2
:100AE0000E94880440E060E08AE70E944A046DE2C8
:100AF00073E0CE010E94FE0348E06FE180E80E94AF
:100B00004A04D0E0C0E08CE10E943E058A7029F4DE
:100B10002196C83E83E0D807B1F78CE10E943E05DC
:100B200081FD03C0C83ED34039F448E06FE180EA5C
:100B3000DF91CF910C944A04DF91CF910895CF9328
:100B4000DF93EB01682F84ED0E947B04BE0186EDEC
:100B50000E9488048AEE0E943E0580FDFBCFDF9153
:100B6000CF910895CF92DF92EF92FF920F931F9350
:100B70008634910568F120915003233449F5C090E3
:100B80005B03D0905C03E0905D03F0905E03009106
:100B90000503109106032091070330910803C01646
:100BA000D106E206F306A1F4E7E4F4E0835D9C4F8E
:100BB0009F012E5F3F4F41815081553319F452817F
:100BC000651771F0F901E40FF11DE817F90780F3DB
:100BD00080E01F910F91FF90EF90DF90CF900895EC
:100BE00081E0F7CFE091E802F091E9029F012F5FE9
:100BF0003F4F3093E9022093E80280830895FF92EB
:100C00000F931F93CF93DF93162FF42E052F0E947F
:100C1000F205812F0E94F205CF2DD02F115020F028
:100C200089910E94F205FACFDF91CF911F910F9128
:100C3000FF90089520919E02260F3327331F213203
:100C40003105ECF42091C202FC0190E080E02430F8
:100C500069F082E00895A0919E022191AC01425872
:100C60005D4FA40FB52FB11D2C930196861798F3F5
:100C700080919E02680F60939E0280E0089581E05B
:100C800008951092C20281E08093C4021092C302C0
:100C900061E082E10E940B0161E083E10E940B01AF
:100CA000E9EBF0E080818E7F808380818D7F80837F
:100CB00088E48093B80085E48093BC000895CF93C6
:100CC000DF9391E090937D028823B9F0C091B80042
:100CD000D091BA008091BC008A7B8093BC0060E018
:100CE00082E10E940B0160E083E10E940B010E94FF
:100CF0004106D093BA00C093B800DF91CF91089518
:100D00000895E091F2028091F102E81730F4F0E0EA
:100D1000E85AFD4F808190E008958FEF9FEF08958E
:100D20009091F2028091F1022FEF3FEF981748F473
:100D3000E92FF0E0E85AFD4F208130E09F5F90936B
:100D4000F202C90108958091F1029091F202891B8B
:100D5000990B0895CF92DF92EF92FF920F931F931A
:100D6000CF93DF937C01CB018A012091570222238C
:100D700089F0EB016B01C40ED51ECC15DD0569F0C1
:100D80006991D701ED91FC910190F081E02DC701AF
:100D90000995F3CF642F0E941A06C801DF91CF9105
:100DA0001F910F91FF90EF90DF90CF900895CF9318
:100DB000DF931F92CDB7DEB76983209157022223BC
:100DC000F9F02091EF02203258F021E030E0FC01F0
:100DD0003383228390E080E00F90DF91CF910895DC
:100DE0008091F002E82FF0E0E95CFD4F998190835B
:100DF0008F5F8093F0028093EF0281E090E0ECCF70
:100E000061E0CE0101960E941A06F7CFCF92DF92E1
:100E1000EF92FF920F931F93CF93DF93FC01C48156
:100E200021E020935702C09336021092F0021092F4
:100E3000EF028385682B8BE397E00E94D706D09161
:100E4000EF02D13208F092C00E9488016B017C0150
:100E50008091C202811165C082E08093C20281E06C
:100E60008093C4028FEF8093C1021092E602D09368
:100E7000E502A7E3B2E0E5ECF2E080E0D81385C03C
:100E80001092E7028091E702CC0FC82BC093E702D3
:100E90008091C302813009F07CC01092C3020E948D
:100EA00088016B017C018091E7028093BB008091F7
:100EB000790290917A02A0917B02B0917C02892BF9
:100EC0008A2B8B2B99F00E94880100917902109156
:100ED0007A0220917B0230917C026C197D098E0987
:100EE0009F090617170728073907E0F18091BC0012
:100EF00083FDD9CF85EC8093BC000E9488016B01F3
:100F00007C018091C202823009F445C08091C10207
:100F10008F3F61F18091C102803241F18091C10225
:100F200025C08091790290917A02A0917B02B091C4
:100F30007C02892B8A2B8B2B09F48ACF0E94880193
:100F40000091790210917A0220917B0230917C020B
:100F50006C197D098E099F0906171707280739079D
:100F600008F076CF809178020E945F061092F0021E
:100F70001092EF0210925702DF91CF911F910F91C3
:100F8000FF90EF90DF90CF9008959D9191938F5FA8
:100F900075CF85EEB0CF8091790290917A02A091C1
:100FA0007B02B0917C02892B8A2B8B2B09F4A9CF71
:100FB0000E9488010091790210917A0220917B02AF
:100FC00030917C026C197D098E099F09061717075D
:100FD0002807390708F095CFC5CF60E087E00E9469
:100FE0000B0160E086E00C940B0160E087E00E945A
:100FF0000B0161E086E00E940B016CE271E080E091
:1010000090E00E94AD010C94ED071F93CF93DF9306
:10101000EC01162F6E8180E00E949504E0915A0643
:1010200081E08E0FF0E0E45EF94F10838F3340F4DF
:1010300080935A0681E090E0DF91CF911F9108954F
:101040000E94AF0380935B068E83682F80E00E942E
:10105000950410925B0610925A068C818F5F8C83E8
:10106000E9CF90E080E008950F931F93CF938C0118
:10107000C62F0E9406076C2F6460C8010E940607F5
:101080006C2F6B7FC8010E94060783EC90E00197EC
:10109000F1F7CF911F910F9108950F931F93CF9365
:1010A000DF938C01D62FC42F607F642B0E943408FD
:1010B00080E1D89FB00111246C2BC801DF91CF9142
:1010C0001F910F910C943408CF93DF93CDB7DEB707
:1010D00028970FB6F894DEBF0FBECDBF88E0E7E3D8
:1010E000F1E0DE01119601900D928A95E1F7809171
:1010F000750781111AC08FEF90E0880F991F21E0CA
:1011000030E02C0F3D1F820F931FFC01608160684F
:1011100040E08DE697E028960FB6F894DEBF0FBE4C
:10112000CDBFDF91CF910C944D0881E0E5CF40E039
:1011300061E08DE697E00E944D088BE39FE1019707
:10114000F1F7089541E00E944D0881E090E0089594
:10115000FB0101900020E9F73197AF01461B570BC7
:10116000DC01ED91FC910280F381E02D0994DC011A
:1011700096E0FB0101900D929A95E1F70895BC016C
:101180008DE293E00E94B70866E173E083E393E0A9
:101190000C94B708DC0194E0FB0101900D929A9544
:1011A000E1F7089583E393E00E94BF0867E473E0EA
:1011B0008BE493E00E94CA0868E176E087E493E05C
:1011C0000E94CA080C94A003262F206120935C0380
:1011D000643021F0009711F481E090E061E00E941A
:1011E000220310923D0388E280933E030E94D208BE
:1011F00084E080935D0310925E0322E04CE150E0B6
:101200006AE182E30E944D0386E390E00C94560568
:10121000CF93DF93EB010E94BF08BE018BE493E004
:101220000E94CA0868E176E087E493E0DF91CF91FD
:101230000C94CA08CF93DF93EC016F8383E0888717
:1012400081E00E949504DE01149683E0EDE5F6E06E
:1012500001900D928A95E1F78F81DF91CF910895EA
:101260004F925F926F927F928F929F92AF92BF92B6
:10127000CF92DF92EF92FF920F931F93CF93DF9362
:10128000CDB7DEB729970FB6F894DEBF0FBECDBF3E
:1012900060E080E00E9495048EE590E090931D064A
:1012A00080931C0684EE90E090931F0680931E06A8
:1012B000DE015E9620E2622E26E0722E6C013DE792
:1012C000832E31E0932ECE0101965C01C60101967A
:1012D000F6012491222309F460C02432B9F42D01CF
:1012E000F2E04F0E511CED90FC9022E0C20ED11C9A
:1012F000FC0184918634B1F158F48434B1F010E0EB
:1013000000E08534A1F110E000E01BC06C01DECFED
:101310008834B9F18335B9F7F70101900020E9F776
:1013200031978F010E191F090CC0B501C7010E942A
:10133000CE00F50101900020E9F731978F010A19DD
:101340001B09F301E192F1923F0180911C069091FB
:101350001D060297080F191F10931D0600931C0607
:10136000D201B4CFC7010E94291B8C01EACFC7016B
:10137000800F911F0E94321B882319F30F5F1F4FAC
:10138000F6CF1C821B829A8289826E2DC5010E9433
:101390001A09C5010E941C05E8CF29960FB6F894DA
:1013A000DEBF0FBECDBFDF91CF911F910F91FF9098
:1013B000EF90DF90CF90BF90AF909F908F907F90F5
:1013C0006F905F904F9008953F924F925F926F920F
:1013D0007F928F929F92AF92BF92CF92DF92EF92C5
:1013E000FF920F931F93CF93DF93CDB7DEB7609734
:1013F0000FB6F894DEBF0FBECDBF60E080E00E9464
:10140000950480901C0690901D0660E080E00E948C
:101410009504C0901E06D0901F061C821B828DE78B
:1014200091E09A83898318861E82712C612C63E671
:10143000462E63E0562E10E000E070E4372EEEE119
:10144000EE2EE6E0FE2E6814790408F09CC025E438
:10145000321609F46CC0231554F040E43416C9F078
:1014600084E4381609F453C050E4352EECCF98E4E8
:10147000391609F465C0E3E53E1609F448C0F6E400
:101480003F12F2CF98012F5F3F4FF80184918901FD
:1014900042C096012F5F3F4FF6018491882309F4E3
:1014A00072C0843209F06DC05701F2E0AF0EB11C7A
:1014B000F70182819381F2E0CF0ED11CF9013490C3
:1014C000F6E4F31540F025E4321658F444E43416FB
:1014D00051F07501B8CFE8E43E1679F0F3E53F121C
:1014E000F8CF8C01F6CFBE01665F7F4F0E94CE0021
:1014F00075018E01065F1F4FA6CF682FCE010196A2
:101500000E941A0975018E010F5F1F4F9CCFF801D1
:1015100080810F5F1F4F882309F4A6CFF2018083DB
:10152000FFEF6F1A7F0AC20101962C018CCF580180
:10153000FFEFAF1ABF0AC8010E94321B8501EBCF33
:10154000F801678181E00E949504F80137812681C6
:101550009085321305C080919B06981708F084CFC0
:10156000E92FF0E0E35AF94F80819F5FF8019087FF
:101570009F3388F2321779F290919C0697831086F8
:10158000CACF6901CBCF60E080E00E949504009152
:101590001E0610911F062CE1E22E26E0F22E3DE7FA
:1015A000C32E31E0D32E412C512C32014394C8017B
:1015B0000196F80124912223B9F1243299F50E5FA6
:1015C0001F4FFC018491883449F5F70164811C8226
:1015D0001B82DA82C982CE0101960E941A098E818D
:1015E0008823E1F0E82FF0E093E0F595E7959A95F0
:1015F000E1F7EC50FD4F982F9770B301A20104C0A2
:10160000440F551F661F771F9A95D2F79081942B30
:1016100090836FE30E94FA048E83E1CF92E0E90E9B
:10162000F11CC5CF8C01C3CFF401ED59FC4F1082E2
:101630008BE780933001C40160960FB6F894DEBF4B
:101640000FBECDBFDF91CF911F910F91FF90EF9013
:10165000DF90CF90BF90AF909F908F907F906F90D2
:101660005F904F903F900895CF93DF93EB0144E05C
:1016700050E0BC0189E493E00E94871D892B49F466
:1016800063E473E0CE010E94B70881E0DF91CF915F
:10169000089580E0FBCF0F931F93CF938C0183E4D9
:1016A00091E00E94BF08EDE2F3E088E08487C6E0A5
:1016B000C58748E050E06CE670E08BE393E00E9461
:1016C000201BEDE4F3E0DF011D92CA95E9F766E126
:1016D00073E083E493E00E94B708B80183E593E0E8
:1016E0000E94CA0868E176E089E493E00E94CA0893
:1016F0008AE290E0CF911F910F910C945605EF92E2
:10170000FF920F931F93CF93DF938C01EDE2F3E0F1
:1017100086E191E0DF019C011D9221503040E1F70C
:1017200080911503C3E4D1E0833011F4C0E0D3E02D
:10173000CE010E94EB00BE01882309F4ACC081E217
:1017400093E00E9408098881807F803E91F0888123
:101750009981AA81BB818F3F9F4FAF4FBF4F49F007
:1017600044E050E0BE018CE193E00E94871D892B8C
:1017700031F463E471E08DE293E00E94B70888E001
:101780008093390310923A0349E050E064E770E037
:101790008BE393E00E94201B10923D0381E1809334
:1017A00044031092510383E48093520310924F0339
:1017B00084E48093500310925303109255031092C7
:1017C000560363E471E08DE293E00E94B70881E084
:1017D000809357038093580386E080935903809148
:1017E000050390910603A0910703B091080380932D
:1017F0005B0390935C03A0935D03B0935E03C09181
:101800001503C33031F468E176E083E693E00E948B
:10181000CA0866E173E083E793E00E94B70883E4B7
:1018200094E09093E9028093E802E8E6F0E0849186
:101830000E94F205E9E6F0E084910E94F205EAE6F2
:10184000F0E084910E94F205EBE6F0E084910E94C2
:10185000F20585E30E94F20581E00E94F20583E033
:10186000C11101C081E00E94F2058DE30E94F205E2
:1018700087E00E94F20581E00E94F20586E1E82EF1
:1018800083E0F82EC7E0C15049F0D7018D917D016A
:101890000E94F205F8CF87E293E053CF80910001D8
:1018A000882371F060E071E0FB0101900020E9F70E
:1018B000BF016150714040E051E08CE00E94FF05A3
:1018C0000115110559F0A80164E082E30E94FF05AB
:1018D00040E053E064E086E30E94FF0587E30E9456
:1018E000F20583E00E94F20581E00E94F20583E0A8
:1018F0000E94F20586E00E94F2058FEF0E94F20539
:10190000C091E802D091E902C755D340CE014C9670
:1019100090933D0380933E030E94A003CE0108965E
:101920009093530380935403AE01405F5F4F21E0D7
:101930006AE188E20E944D03CE018A96DF91CF9141
:101940001F910F91FF90EF900C945605CF93DF936A
:10195000FC01248135814217530788F4C081D1816D
:10196000FB0160817181CE01840F951F0E94A41D2F
:10197000009729F08C1B9D0BDF91CF9108958FEF7D
:101980009FEFFACF0F931F93CF93DF938C01EB015F
:10199000FC01808191810097E1F068817981611576
:1019A0007105A9F0428153812C813D814217530773
:1019B00070F00E949D1D8C819D81F8019583848328
:1019C0001D821C82DF91CF911F910F9108950E947B
:1019D000411C88819981F801918380838A819B8150
:1019E000938382838C819D8195838483198218825D
:1019F0001B821A82E5CFCF93DF93EC018881998116
:101A0000009711F00E94411C198218821D821C82CD
:101A10001B821A82DF91CF910895FC018081918110
:101A2000009711F00C94411C0895CF93DF93EC01C3
:101A30000D960E940D0DCE0106960E940D0DCE0151
:101A4000DF91CF910C940D0D0F931F93CF93DF93E4
:101A5000EC0188819981009759F02A813B812617F2
:101A6000370730F081E0DF91CF911F910F910895FA
:101A70008B016F5F7F4F0E94CA1C009759F09983BA
:101A800088831B830A832C813D81232B59F7FC011A
:101A90001082E8CF80E0E7CFEF92FF920F931F9381
:101AA000CF93DF936115710541F480E0DF91CF9111
:101AB0001F910F91FF90EF90089541155105B1F0DE
:101AC0007B01EC010C811D81040F151FB8010E94E0
:101AD000240D882351F3288139818C819D81B701A0
:101AE000820F931F0E949D1D1D830C8381E0DECF1A
:101AF000CF93DF93EC01FB014481558160817181BB
:101B00000E944C0D811103C0CE010E94FB0CCE013E
:101B1000DF91CF910895EF92FF920F931F93CF9390
:101B2000DF93EC017B018A01BA010E94240D81112F
:101B30000BC0CE010E94FB0CCE01DF91CF911F9113
:101B40000F91FF90EF9008951D830C83B70188815A
:101B500099810E949D1DF0CFFB0101900020E9F7C3
:101B60003197AF01461B570B0C948B0D10920A0650
:101B7000109209068EE996E00E94E70268EF71E094
:101B800087E497E00E94AC0D0E9497086CEC71E02E
:101B90008DE697E00E94A8080E94640865E871E05D
:101BA0008DE697E00E94A80860E089E00E940B01A2
:101BB00060E088E00C940B01FB01DC0111961C92A3
:101BC0001E9213961C921E92129715961C921E92AC
:101BD00014978617970749F0608171816115710527
:101BE00021F0448155810C948B0D0895FC011182E4
:101BF000108213821282158214826115710551F0D0
:101C0000FB0101900020E9F73197AF01461B570B0C
:101C10000C948B0D0895AF92BF92CF92DF92EF920A
:101C2000FF920F931F93CF93DF936C015B017A01B7
:101C300089012417350720F48F2D7901042F182FDF
:101C400068EF71E0C6010E94F60DD5011496CD91A2
:101C5000DC91EC16FD06E0F40C171D0708F4E80112
:101C6000D501ED91FC911197EC0FFD1F10811082B1
:101C70006D917C916E0D7F1DC60161157105A1F0FE
:101C80000E94AC0DF50180819181C80FD91F188386
:101C9000C601DF91CF911F910F91FF90EF90DF90E0
:101CA000CF90BF90AF9008950E94FB0CEBCFCF93E5
:101CB000DF93EC0168EF71E00E94F60D68EF71E0D0
:101CC000CE0106960E94F60D1C8668EF71E0CE01EB
:101CD0000D960E94F60D1B8A1C8A1D8A1E8ADF91B2
:101CE000CF910895EF92FF920F931F93CF93DF93BD
:101CF00000D000D000D0CDB7DEB78C010E9497088D
:101D0000F801848581111BC06EE871E08DE697E0D3
:101D10000E94A8080E9464086EE971E08DE697E0D1
:101D20000E94A80826960FB6F894DEBF0FBECDBF5E
:101D3000DF91CF911F910F91FF90EF9008956EEA80
:101D400071E08DE697E00E94A8080E94640878017F
:101D5000F6E0EF0EF11C6FEB71E0CE0101960E94F0
:101D6000F60DB801635F7F4FCE0101960E94780D9A
:101D70008C0144E050E066EC71E00E944C0D811152
:101D800003C0C8010E94FB0CB701C8010E94780D76
:101D9000FC0144815581608171818DE697E00E944C
:101DA000FA01CE0101960E940D0DBCCF85ED809306
:101DB000BC008091790290917A02A0917B02B0914F
:101DC0007C020796A11DB11D23E0B695A7959795B6
:101DD00087952A95D1F72091BC0024FD03C010926D
:101DE000C20208954091790250917A0260917B027B
:101DF00070917C02452B462B472B69F30097A10578
:101E0000B10541F02AE22A95F1F700C00197A10936
:101E1000B109E1CF809178020C945F061F920F9276
:101E20000FB60F9211242F933F938F939F93AF93ED
:101E3000BF9380910C0690910D06A0910E06B09173
:101E40000F0630910B0623E0230F2D3758F501962E
:101E5000A11DB11D20930B0680930C0690930D06D7
:101E6000A0930E06B0930F06809110069091110674
:101E7000A0911206B09113060196A11DB11D809389
:101E8000100690931106A0931206B0931306BF910B
:101E9000AF919F918F913F912F910F900FBE0F9017
:101EA0001F90189526E8230F0296A11DB11DD2CFD1
:101EB0001F920F920FB60F9211242F933F934F93BF
:101EC0005F936F937F938F939F93AF93BF93EF93A2
:101ED000FF938EE996E00E947802FF91EF91BF9107
:101EE000AF919F918F917F916F915F914F913F91B2
:101EF0002F910F900FBE0F901F9018951F920F9269
:101F00000FB60F9211242F938F939F93EF93FF930C
:101F1000E091AE06F091AF068081E091B406F091B9
:101F2000B50682FD1BC090818091B7068F5F8F73CD
:101F30002091B806821741F0E091B706F0E0E25632
:101F4000F94F958F8093B706FF91EF919F918F91F5
:101F50002F910F900FBE0F901F9018958081F4CF96
:101F60001F920F920FB60F9211242F933F934F930E
:101F70005F936F937F938F939F93AF93BF93EF93F1
:101F8000FF938091B900887F803609F44AC0F0F54C
:101F9000883209F4A7C018F5803109F49BC0B8F461
:101FA000882309F4F9C0883009F494C0FF91EF91B7
:101FB000BF91AF919F918F917F916F915F914F9161
:101FC0003F912F910F900FBE0F901F901895883161
:101FD00009F488C0803251F78093C10214C0803464
:101FE00009F49DC040F48033B9F38833F9F6809347
:101FF000C10285ECB0C0803509F485C0883509F48C
:1020000096C0883499F60E94D60ED0CF883909F44C
:102010008CC038F5883729F050F4883611F08037B5
:1020200029F683E08093C2021092C00257C088381C
:1020300009F47BC0803919F0803809F0B7CF80915E
:10204000C002803208F071C0E091C00281E08E0FC2
:102050008093C0028091BB00F0E0E056FD4F80838A
:102060003DC0803B39F0E0F4803A09F479C0883A09
:1020700009F09CCF84E08093C20210929F021092DC
:102080009E02E091ED02F091EE02099580919E0290
:1020900081110FC081E080939E0210927E0209C0E0
:1020A000803C09F4A6CF883C09F4A3CF883B09F013
:1020B0007DCFE0919F0281E08E0F80939F02F0E040
:1020C000E258FD4F80818093BB0090919F028091E8
:1020D0009E0229C08091E7028093BB0085EC80932B
:1020E000BC0064CF9091E6028091E502981758F504
:1020F000E091E60281E08E0F8093E602F0E0EB5380
:10210000FD4F8081E9CFE091E60281E08E0F809360
:10211000E6028091BB00F0E0EB53FD4F808390918D
:10212000E6028091E5029817C8F285E8D8CFE091E1
:10213000E60281E08E0F8093E6028091BB00F0E022
:10214000EB53FD4F80838091C40281115CCF81E00D
:102150008093C30284EA8093BC001092C20226CF0F
:1021600085EC8093BC001092C2028091C002803244
:1021700030F4E091C002F0E0E056FD4F1082609133
:10218000C00270E0E091EB02F091EC0280EA92E094
:1021900009951092C0020ACF1092C10234CFEEE925
:1021A000F6E01382128288EE93E0A0E0B0E0848330
:1021B0009583A683B7832DE431E03183208325EC1A
:1021C00030E03587248724EC30E03787268720EC01
:1021D00030E0318B208B21EC30E0338B228B22ECF2
:1021E00030E0358B248B26EC30E0378B268B118E3C
:1021F000128E138E148EEBE3F7E013821282848327
:102200009583A683B7838FE591E091838083EDE684
:10221000F7E01382128281E791E09183808380E26C
:10222000848380E1818782E08287138686E597E058
:102230000E94570EEDE4F7E0138212828DE791E0E1
:10224000918380831782158268EF71E087E497E0BD
:102250000C94F60DCF93DF93CDB7DEB7AF970FB6E3
:10226000F894DEBF0FBECDBF789484B5826084BD84
:1022700084B5816084BD85B5826085BD85B581608A
:1022800085BD80916E00816080936E001092810008
:1022900080918100826080938100809181008160C3
:1022A0008093810080918000816080938000809184
:1022B000B10084608093B1008091B0008160809310
:1022C000B00080917A00846080937A0080917A00D7
:1022D000826080937A0080917A00816080937A0096
:1022E00080917A00806880937A001092C1001092E9
:1022F000F2021092F1021092F0021092EF020E948C
:10230000410687EF91E09093EE028093ED0288EF13
:1023100091E09093EC028093EB021092720780910F
:102320007707823018F098E09093720780937507D2
:1023300062E370E080E090E00E94AD016091780778
:102340008DE697E00E94060768EE73E080E090E07B
:102350000E94AD0160E38DE697E00E9434080BE433
:1023600016E4C8010197F1F760E38DE697E00E945B
:102370003408C8010197F1F760E38DE697E00E9409
:10238000340883E592E00197F1F760E28DE697E08B
:102390000E94340860917207606240E08DE697E029
:1023A0000E944D0884E08093730740E06CE08DE666
:1023B00097E00E944D080E94970812E0109374075E
:1023C00040E066E08DE697E00E944D0840E062E064
:1023D0008DE697E00E944D088BE39FE10197F1F7AE
:1023E00061E089E00E94570161E088E00E945701A6
:1023F00061E087E00E94570161E086E00E9457019A
:1024000060E081E00E94570160E089E00E940B01DA
:1024100060E088E00E940B010E94ED0788E0809355
:10242000780760E08DE697E00E9406076BEC71E0AC
:102430008DE697E00E94A8080E94640865E871E0B4
:102440008DE697E00E94A808E091AE06F091AF06F5
:102450001083E091AA06F091AB061082E091AC06E1
:10246000F091AD068FEC80831092B606E091B20633
:10247000F091B30686E08083E091B006F091B1065A
:10248000808180618083E091B006F091B106808107
:1024900088608083E091B006F091B1068081806809
:1024A0008083E091B006F091B10680818F7D8083BA
:1024B0001092FC0587E390E0C12CD12C7601C394E7
:1024C0000097C1F0FC01B3E0F595E795BA95E1F707
:1024D000EC50FD4F282F2770B701A60104C0440F10
:1024E000551F661F771F2A95D2F72081242B208342
:1024F0000197E6CF68E271E086E193E00E94B708B9
:102500008CEB92E09093FC028093FB020CB406FCEF
:1025100025C061E08AE00E94570161E08AE00E94E4
:102520000B0161E08BE00E94570161E08DE00E94A9
:10253000570160E08CE00E94570161E08BE00E944F
:102540000B0160E08BE00E940B0160E08DE00E94D7
:102550000B0180E58CBD8DB581608DBD8AE08093D7
:10256000F30261E00E9457010E94F1034FEF60E027
:102570008FEF0E944A0462E070E080E090E00E94E9
:10258000AD010E94F8038DE10E94EC0380E00E94FF
:10259000EC031EB50E94F103112399F370E060E093
:1025A00088E00E94880470E060E08CE00E9488046B
:1025B0006FEF7BE08AE00E94880460E07CE084E0CA
:1025C0000E9488046FEF71E186E00E94880466E74C
:1025D00074E084E10E949F0561EB88E30E947B0424
:1025E0006FE370E388E20E94880469EF77EF80E38D
:1025F0000E94880461E080EC0E947B0442E362EC6C
:1026000080E80E944A0462E17CE086EC0E94880433
:1026100062E184EC0E947B046CED75E08AEC0E9420
:1026200088046091160384EE0E947B046091170376
:1026300085EE0E947B046091180382EE0E947B0469
:102640006091190383EE0E947B0460911A0380EE6F
:102650000E947B0460911B0381EE0E947B0460E07A
:1026600071E080E10E949F058FE10E945F0440ECD1
:102670006BE180E80E944A0444E06FE180E80E9438
:102680004A0482E70E943E05863008F08F5F811180
:102690000CC062ED71E08EE996E00E94A80866EF3A
:1026A00071E08EE996E00E94A8081092FC0564E2B1
:1026B00071E088E196E00E94CA081092FA05109233
:1026C000F90581E08093FB0560E271E085EF95E01C
:1026D0000E94CA08E8E1F6E024E136E04CE153E06C
:1026E0009191D9018D919D018095892BDA018D936E
:1026F000AD01B6E0EC31FB0799F76FE371E08BEECB
:1027000095E00E94CA0881E080932003EAE8CE2E7B
:10271000E0E0DE2EFDE76F2EF0E07F2EA4EEAA2E85
:10272000A0E0BA2E8EE996E00E945802181619060B
:1027300084F48EE996E00E94360289831A8241E091
:1027400050E0BE016F5F7F4F87E497E00E944C0D21
:10275000E9CF8091FF02882379F06091FD027091AA
:10276000FE026115710509F0CEC36FEF7BE08CE0CE
:102770000E9488041092FF0289E30E943E0510E047
:1027800000E08823C9F16091FD027091FE0280E0B3
:102790000E948804BE016F5F7F4F86E090E00E9438
:1027A000230489819A819093FE028093FD028D819A
:1027B0009E818C010078112787FF12C08B819C813C
:1027C00004970091FB021091FC020150110980173F
:1027D000910708F48C016DE273E0C8010E942304A4
:1027E000F801E35DFC4F108281E08093FF0240E43A
:1027F0006EE180E80E944A048091FC05882369F01C
:1028000080911503823009F487C308F07FC38823C1
:1028100009F40BC4813009F427C40115110509F02E
:10282000B2C48091FB05857029F18091F9059091E2
:10283000FA05892BF9F461E184ED0E947B0461E0E3
:1028400082ED0E947B048AEE0E943E0580FDFBCF54
:1028500060E082ED0E947B0489ED0E943E0582FFCC
:1028600009C085EF95E00E944B0B8091FB058860C5
:102870008093FB058091F9059091FA05019690935C
:10288000FA058093F9058091FE05813009F079C041
:102890008091FB0581FF75C082E08093FE058091E9
:1028A0002F018F5F80932F01F090FF05E0900006CD
:1028B0001091FD05B0E21B9F900111248F71182F1C
:1028C000122B8BEE95E00E94EB006BEE75E08823F7
:1028D00009F456C481E293E00E94080908E00093DD
:1028E000390310923A0349E050E064E770E08BE36B
:1028F00093E00E94201B8CE280933E0386E080934D
:1029000044030E94A003E0925103F09252038BE033
:1029100080934F0310935003E3E5F3E0DF011D9232
:102920000A95E9F780912E01809355038D5F80937E
:102930002E0180E680935B0382E080935C0393E04A
:1029400090935D0310925E0310925F0310926003F8
:1029500010926103109262038093630394E090935A
:1029600064038093650386E28093660322E040E27D
:1029700050E06AE182E30E944D038AE390E00E9406
:10298000560581EF95E00E94EB00882379F0809155
:10299000F00581110BC08091EF05811107C081EF17
:1029A00095E00E944B0B81E08093EF058BEE95E064
:1029B0000E94EB00882379F08091EA0581110BC019
:1029C0008091E905811107C08BEE95E00E944B0BC9
:1029D00081E08093E90580914B0790914C070B971C
:1029E00030F48091090690910A06029751F468EF3D
:1029F00071E087E497E00E94AC0D8EE996E00E94BA
:102A0000E70280914B0790914C070A9709F09AC012
:102A100060914707709148074AE050E08EE996E0E0
:102A20000E94FA0166EF71E08EE996E00E94A80824
:102A300067E477E0CE0101960E94DC0D0E94AF03AF
:102A4000182F682F80E00E94950410921C061093A6
:102A50001E0610931D0603E000935A0610925B06B3
:102A6000612F8DE497E00E941A09182F69EF71E039
:102A70008DE497E00E94A80840914B0750914C07C5
:102A800060914707709148078DE497E00E94FA0132
:102A900063E072E08DE497E00E94A808609152071D
:102AA00080E00E949504E1E5F7E0ACE1B6E001903A
:102AB0000D920A95E1F790919D0680915207981327
:102AC00004C060E081E00E9495048DE497E00E94DC
:102AD0001C051F921F939F938F93DF92CF927F923B
:102AE0006F92DF92CF92BF92AF920E9430098BEE2D
:102AF00091E0909304068093030684EE99E090930E
:102B00000206809301061092000680E58093FF057F
:102B100081E08093FE058091FD058F5F8770809333
:102B2000FD0580930706CE0101960E940D0D68EF0A
:102B300071E087E497E00E94AC0D0FB6F894DEBF19
:102B40000FBECDBF9091070680913001981367C1E9
:102B50008BE7809330010091050610910606011560
:102B6000110509F45CC1CE0101960E94570EB8010F
:102B7000CE018A960E94F60D66E072E0CE0148967C
:102B80000E94F60D50E040E0BE01685E7F4FCE012E
:102B90008A960E94A60C7C01CE0148960E940D0DDB
:102BA00064E072E0CE0148960E94F60D50E040E0ED
:102BB000BE01685E7F4FCE018A960E94A60C8C01F2
:102BC000CE0148960E940D0D98012F5F3F4FA7013F
:102BD000BE01665D7F4FCE0184960E940B0E68E0B9
:102BE00072E0CE0148960E94F60D50E040E0BE0132
:102BF000685E7F4FCE0184960E94A60C8C01CE01A8
:102C000048960E940D0D085F1F4F60E172E0CE01F3
:102C100048960E94F60DA801BE01685E7F4FCE0166
:102C200084960E94A60C7C01CE0148960E940D0D50
:102C30009701A801BE016C5D7F4FCE0148960E94AE
:102C40000B0EBE01685E7F4FCE010E960E94C20C35
:102C5000CE0148960E940D0D62E172E0CE014896C9
:102C60000E94F60D50E040E0BE01685E7F4FCE014D
:102C700084960E94A60C8C01CE0148960E940D0DF0
:102C8000045F1F4F60E172E0CE0148960E94F60D8E
:102C9000A801BE01685E7F4FCE0184960E94A60CFB
:102CA0007C01CE0148960E940D0D9701A801BE013E
:102CB0006C5D7F4FCE0148960E940B0EBE01685E90
:102CC0007F4FCE0107960E94C20CCE0148960E940B
:102CD0000D0D6EE172E0CE0148960E94F60D50E0B7
:102CE00040E0BE01685E7F4FCE0184960E94A60C34
:102CF0008C01CE0148960E940D0D085F1F4F64E0C5
:102D000072E0CE0148960E94F60DA801BE01685EF1
:102D10007F4FCE0184960E94A60C7C01CE0148967E
:102D20000E940D0D9701A801BE016C5D7F4FCE0181
:102D300048960E940B0E66E272E0CE014E960E940B
:102D4000F60DBE01685E7F4FCE014E960E94780D53
:102D5000DC0114964D915C9115976D917C91CE019B
:102D60000E960E944C0DCE014E960E940D0DCE0186
:102D700048960E940D0D68E272E0CE0148960E94CE
:102D8000F60D50E040E0BE01685E7F4FCE018A96AE
:102D90000E94A60C8C01CE0148960E940D0D0F3F9B
:102DA0001F4F09F489C31D86CE0184960E940D0D24
:102DB000CE018A960E940D0DBE016F5F7F4F86E5A2
:102DC00097E00E94C20CBE01695F7F4F8CE597E0DF
:102DD0000E94C20C8D8580936207BE01625F7F4FA7
:102DE00083E697E00E94C20C8C899D89AE89BF89D9
:102DF0008093690790936A07A0936B07B0936C0761
:102E0000CE0101960E94150D80916207882309F476
:102E100056C381E090E090930A0680930906809162
:102E2000090690910A068130910509F06EC38091E0
:102E3000690790916A07A0916B07B0916C07892B85
:102E40008A2B8B2B09F03EC30E94DF016093690738
:102E500070936A0780936B0790936C0761E088E03A
:102E60000E940B0160E089E00E940B0166E577E0BB
:102E7000CE0101960E94DC0D6CE577E0CE0107964D
:102E80000E94DC0D809162078D8763E677E0CE01BA
:102E90000E960E94DC0D8091690790916A07A091BF
:102EA0006B07B0916C078C8B9D8BAE8BBF8BCE016B
:102EB00001960E94720ECE0101960E94150D80911E
:102EC0000806811110C061E087E00E940B0160E0FC
:102ED00086E00E940B016CE271E080E090E00E94CD
:102EE000AD010E94ED0781E08093080680E090E04C
:102EF000892B09F417CC0E946402882309F406CCBC
:102F00000E94000003CC6150710931CC833009F478
:102F100057C0843009F081CC65E0C8010E94B20539
:102F2000882309F4CAC080910403811108C088E392
:102F30000E943E05682F6E7F88E30E947B0467E64F
:102F400073E088E196E00E94CA08E7E4F4E0C80173
:102F5000835D9C4F4C017F0192E0E90EF11C518092
:102F60008081863009F4FBC008F0BEC0813009F4CE
:102F7000ECC0833009F4EFC0F701E50DF11DE81551
:102F8000F90548F30E94DF0160930D0370930E036F
:102F900080930F03909310038091F505882361F0CF
:102FA0001092FA051092F90581E08093FB0565EF18
:102FB00075E0CB010E94CA0883E0809315032DCCF5
:102FC000209011033090120340901303509014038B
:102FD000EFEF2E163E064E065E0609F41ECC0E944A
:102FE000DF0120910D0330910E0340910F035091AA
:102FF0001003621B730B840B950B6215730584051C
:10300000950508F40ACC88E196E00E947F0B84E0E5
:10301000809315030E94DF016093090370930A03F4
:1030200080930B0390930C03F8CB0E94DF01609315
:103030000503709306038093070390930803E8E168
:10304000F6E084E0DF011D928A95E9F790E080E0E8
:103050000E947F0B88E30E943E05682F616088E331
:103060000E947B0481E0D4CF62E0C8010E94B205D7
:10307000882319F167E673E0CE0101960E94CA0821
:10308000E7E4F4E0C801835D9C4FBF016E5F7F4FB2
:1030900021813081363351F480E093E00E94CA08E8
:1030A000CE0101960E947F0B82E0B2CFFB01E20FBE
:1030B000F11DE817F90748F3F3CF0E94DF012091D3
:1030C000090330910A0340910B0350910C03621BDA
:1030D000730B840B950B613177428105910508F4E0
:1030E0009CCB1092150399CB8A3331F08F3F09F4B2
:1030F00049CF833309F040CF10921103109212038D
:103100001092130310921403F701C701049620E0F4
:1031100030E0A9016191542F432F322F2227260F2F
:10312000311D411D511D8E179F07A1F72F3FAFEF96
:103130003A074A075A07B9F4209311033093120350
:10314000409313035093140317CFB70184E196E023
:103150000E94CA0811CFB70185EF95E0F9CFB701FA
:1031600081EF95E0F5CFA8EEB3E00E943A1B6093A3
:103170001103709312038093130390931403FCCEF6
:1031800087E293E0A9CB0932110508F424CC8091A1
:103190003903883009F01FCC80913A03863009F05A
:1031A000FFC144E050E068E176E083E593E00E94EF
:1031B000871D892B09F00FCC80914203813029F5BE
:1031C00083E393E00E94BF081092410382E0809362
:1031D000420363E473E08DE493E00E94B70866E184
:1031E00073E083E493E00E94B70869E473E083E549
:1031F00093E00E94CA0868E176E089E493E00E94C7
:10320000CA088AE290E00E9456058091FB0583FF80
:103210000DC010914203123049F467E273E085EF6C
:1032200095E00E94340B81111093FB058091F0050D
:10323000811111C08091EF05882369F061E273E08C
:1032400081EF95E00E94340B882329F081E0809380
:10325000F0051092EF058091EA058111BCCB8091B9
:10326000E905882309F4B7CB61E273E08BEE95E0C2
:103270000E94340B882309F4AECB81E08093EA05E9
:103280001092E905A8CB0633110508F4A4CB8630CB
:1032900009F0A1CB809151038B3009F0BCC044E010
:1032A00050E06BEE75E087E493E00E94871D892B68
:1032B00009F091CB90905C0392FE15C0E09103065B
:1032C000F0910406309759F08091520330E020E0ED
:1032D00050E040E063E0829586958770099585E02F
:1032E0008093FE0578CB0E9407037C018091FE0548
:1032F000823009F042C0892D8271823189F560E007
:1033000090E080E00E94E40888E180935C03E09113
:103310000106F091020610E000E0309739F080914C
:10332000500382958695877009958C0183E0809380
:10333000FE05C801889690933D0380933E030E944A
:10334000A00310925F0310926003A801445E5F4FD8
:1033500022E06AE182E30E944D03C801C69665C17E
:1033600081E08093FE05C701019694FE02C090E0C3
:1033700080E064E00E94E4082ECB8330C9F5E114BC
:10338000F104C9F1E0910306F0910406309799F138
:1033900080915B0390E024E0959587952A95E1F76D
:1033A000880F991F880F991F8296A80148505109CC
:1033B0008417950708F4AC01C701840F951F980185
:1033C000241B350B0817190708F097018091520349
:1033D00060E082958695877009958091200368E06A
:1033E000811117C069E0C7010E94E40886E078CF28
:1033F000853009F4F0CA90FE07C0833009F4EBCAA7
:1034000069E0C7010196F0CFE114F10409F4E3CAC1
:1034100060E0C701AFCF8111DECA809152038035D1
:1034200009F0D9CA10915C0311FF39C010923D0315
:103430008CE280933E030E94D20882E180935C0379
:1034400060E081E090E00E9422031092530310920A
:10345000540380912E0180935503109256038D5F83
:1034600080932E0182E08093630384E08093640361
:1034700085E0809365031092660390E690935B036A
:1034800080935D0388E780935E0322E040E250E092
:103490006AE182E30E944D038AE390E0C6C014FF14
:1034A0009ACA0E940703892B09F095CA10FF93CA94
:1034B00060E090E080E05ECF81E08D8775CC82E0B7
:1034C00090E0A9CC0E94DF010091690710916A0782
:1034D00020916B0730916C07601B710B820B930B73
:1034E000603177428105910508F400CD109269079B
:1034F00010926A0710926B0710926C0710920806E0
:103500000E94F5070E94B60DF1CC029709F0EECCAF
:1035100061E089E00E940B0160E088E00E940B01FD
:1035200066E577E0CE0101960E94DC0D6CE577E060
:10353000CE0107960E94DC0D809162078D8763E6BD
:1035400077E0CE010E960E94DC0D80916907909184
:103550006A07A0916B07B0916C078C8B9D8BAE8B2B
:10356000BF8BCE0101960E94720ECE0101960E9481
:10357000150D80910806882361F01092690710925A
:103580006A0710926B0710926C07109208060E944F
:10359000F50768EB7BE080E090E00E94AD01B2CFE0
:1035A0000932110509F417CA811115CA80913B032C
:1035B000853409F010CA44E050E068E176E08BE41D
:1035C00093E00E94871D892BA9F044E050E06CE154
:1035D00073E08BE493E00E94871D892B59F044E04F
:1035E00050E063E471E08BE493E00E94871D892B37
:1035F00009F0F1C980914403813009F044CE8091F3
:103600004F03883009F0E7C90E94D20810924F0397
:1036100080915103883F28F0909152039F5F9093CF
:103620005203885F80935103C8010E945605D3C995
:1036300087E497E00E940D0D86E597E00C94150D48
:10364000FB01DC0102C005900D9241505040D8F7BB
:103650000895FC0105900020E9F7809590958E0F64
:103660009F1F0895F999FECF92BD81BDF89A9927C1
:1036700080B508950E947C1BA59F900DB49F900D6E
:10368000A49F800D911D112408952F923F924F9277
:103690005F926F927F928F929F92AF92BF92CF92E2
:1036A000DF92EF92FF920F931F93CF93DF93CDB7EB
:1036B000DEB7CA1BDB0B0FB6F894DEBF0FBECDBF63
:1036C00009942A88398848885F846E847D848C8434
:1036D0009B84AA84B984C884DF80EE80FD800C813D
:1036E0001B81AA81B981CE0FD11D0FB6F894DEBF20
:1036F0000FBECDBFED010895A29FB001B39FC001E1
:10370000A39F700D811D1124911DB29F700D811D0D
:103710001124911D0895AA1BBB1B51E107C0AA1FCC
:10372000BB1FA617B70710F0A61BB70B881F991F62
:103730005A95A9F780959095BC01CD010895EE0F9B
:10374000FF1F0590F491E02D09940F931F93CF93E1
:10375000DF938230910510F482E090E0E0917B07E6
:10376000F0917C0730E020E0B0E0A0E0309799F4E1
:103770002115310509F44AC0281B390B24303105C5
:10378000D8F58A819B816115710589F1FB019383CD
:103790008283FE0111C0408151810281138148174B
:1037A0005907E0F04817590799F4109761F01296FD
:1037B0000C93129713961C933296CF01DF91CF9101
:1037C0001F910F91089500937B0710937C07F4CF0E
:1037D0002115310551F04217530738F0A901DB01DB
:1037E0009A01BD01DF01F801C1CFEF01F9CF90933C
:1037F0007C0780937B07CDCFFE01E20FF31F8193FF
:1038000091932250310939832883D7CF20917907AA
:1038100030917A07232B41F4209133013091340108
:1038200030937A072093790720913101309132014A
:103830002115310541F42DB73EB740913501509126
:103840003601241B350BE0917907F0917A07E217D6
:10385000F307A0F42E1B3F0B2817390778F0AC01B3
:103860004E5F5F4F2417350748F04E0F5F1F509390
:103870007A0740937907819391939FCFF0E0E0E03E
:103880009CCFCF93DF930097E9F0FC01329713822E
:103890001282A0917B07B0917C07ED0130E020E01F
:1038A0001097A1F420813181820F931F2091790715
:1038B00030917A072817390709F061C0F0937A0729
:1038C000E0937907DF91CF910895EA01CE17DF07E2
:1038D000E8F54A815B819E0141155105B1F7E90187
:1038E000FB83EA8349915991C40FD51FEC17FD075B
:1038F00061F4808191810296840F951FE90199837B
:103900008883828193819B838A83F0E0E0E0129632
:103910008D919C9113970097B9F52D913C9111973A
:10392000CD010296820F931F2091790730917A077B
:103930002817390739F6309751F510927C07109205
:103940007B07B0937A07A0937907BCCFD383C28358
:1039500040815181840F951FC817D90761F44E5FCC
:103960005F4F88819981480F591F518340838A8115
:103970009B81938382832115310509F0B0CFF093A9
:103980007C07E0937B079ECFFD01DC01C0CF138253
:103990001282D7CFB0E0A0E0E0EDFCE10C94471B31
:1039A0008C01009751F4CB010E94A51B8C01C8012A
:1039B000CDB7DEB7E0E10C94631BFC01E60FF71F07
:1039C0009C0122503109E217F30708F49DC0D90188
:1039D000CD91DC911197C617D70798F0C530D10566
:1039E00030F3CE0104978617970708F3C61BD70B51
:1039F0002297C193D1936D937C93CF010E94411C78
:103A0000D6CF5B01AC1ABD0A4C018C0E9D1EA09155
:103A10007B07B0917C07512C412CF12CE12C1097A5
:103A200031F58091790790917A078815990509F009
:103A30005CC04616570608F058C08091310190913D
:103A40003201009741F48DB79EB7409135015091F6
:103A50003601841B950BE817F90708F055C0F09361
:103A60007A07E0937907F90171836083A0CF8D9184
:103A70009C91119712966C90129713967C901397C5
:103A8000A815B90559F56C0142E0C40ED11CCA1441
:103A9000DB0420F1AC014A195B09DA011296159793
:103AA00080F06282738251834083D9016D937C934D
:103AB000E114F10471F0D7011396FC93EE93129781
:103AC00076CF22968C0F9D1FF90191838083F3019D
:103AD000EFCFF0937C07E0937B0769CF4816590638
:103AE00008F42C017D01D3019ACFCB010E94A51BC4
:103AF0007C01009749F0AE01B8010E94941DC801F5
:103B00000E94411C870153CF10E000E050CFFB0121
:103B1000DC0104C08D910190801921F44150504086
:103B2000C8F7881B990B0895FB01DC0102C00190C6
:103B30000D9241505040D8F70895FB01DC010190EF
:103B40000D920020E1F70895FB0151915523A9F052
:103B5000BF01DC014D9145174111E1F759F4CD0149
:103B60000190002049F04D9140154111C9F3FB012E
:103B70004111EFCF81E090E00197089510E0C3EA92
:103B8000D0E004C0FE010E949F1B2196C43AD107D9
:063B9000C9F7F894FFCF15
:103B960041726475696E6F2D454E4332386A363010
:103BA6002D30300000000000000000000000000082
:103BB600C0A80201C0A802027219692D30380A0194
:103BC6007B00007D0780000000400014005400C008
:103BD600A80201FFFFFFFFFFFF000000009A02FAA4
:103BE600012702E702580236024A0200000000D707
:103BF60006AA0631088006A3069006810600000084
:103C060000A208FA013108F901000000000508FACF
:103C1600013108F90120596F75722049440020418D
:103C260043434553532044454E494544210057617B
:103C360069742033207365636F6E647321002041BD
:103C46004343455353204752414E54454421002097
:103C5600446174653A002049643A00202053636148
:103C66006E004661696C656420746F20696E6974C4
:103C760069616C697A652065746865726E65742021
:103C8600636172642E000D0A007B227266696422EB
:103C96003A2200227D007B002264617465223A008C
:103CA6002C0022726669645F746167223A0022748E
:103CB600696D65223A002000556E617574686F72F1
:063CC600697A656400004C
:00000001FF
