:020000040000FA
:100000000C9469000C9491000C9491000C94910054
:100010000C9491000C9491000C9491000C9491001C
:100020000C9491000C9491000C9491000C9491000C
:100030000C9491000C9491000C9491000C949100FC
:100040000C942F0B0C9491000C949F0B0C94790B37
:100050000C9491000C9491000C9491000C949100DC
:100060000C94D10B0C94910063825363000108003F
:10007000060400014500008200004000200000004E
:1000800000240027002A0000000000250028002B83
:100090000004040404040404040202020202020331
:1000A000030303030301020408102040800102043B
:1000B00008102001020408102000000008000201BE
:1000C0000000030407000000000000000000140D01
:1000D000F91511241FBECFEFD8E0DEBFCDBF26E05B
:1000E000AEEEB1E001C01D92A13BB207E1F711E015
:1000F000A0E0B1E0EEE0F1E302C005900D92AE3E6B
:10010000B107D9F710E0C8E6D0E004C02197FE019E
:100110000E946716C736D107C9F70E94770D0C9465
:100120007A180C940000CF93DF932091C505222309
:10013000C1F0FC0120812223A1F0C5ECD5E0A1ECA7
:10014000B5E09C012C5F3F4F899141919D9184279F
:10015000892339F4E217F307B9F781E0DF91CF91F2
:10016000089580E0FBCF90E0FC01E754FF4F24911D
:10017000FC01EB55FF4F3491FC01EF56FF4FE4912A
:10018000EE23C9F0222339F0233001F1A8F4213005
:1001900019F1223029F1F0E0EE0FFF1FE957FF4F70
:1001A000A591B4918FB7F894EC91611126C0309568
:1001B0003E233C938FBF08952730A9F02830C9F023
:1001C000243049F7809180008F7D03C080918000AA
:1001D0008F7780938000DFCF84B58F7784BDDBCFAE
:1001E00084B58F7DFBCF8091B0008F778093B00076
:1001F000D2CF8091B0008F7DF9CF3E2BDACFCF9355
:10020000DF9390E0FC01EB55FF4F24918F569F4FF9
:10021000FC0184918823D1F090E0880F991FFC01A4
:10022000E358FF4FA591B491FC01E957FF4FC591E9
:10023000D49161110EC09FB7F8948C91E22FE09594
:100240008E238C932881E223E8839FBFDF91CF9197
:1002500008958FB7F894EC91E22BEC938FBFF6CF13
:100260003FB7F8948091BD059091BE05A091BF0560
:10027000B091C00526B5A89B05C02F3F19F0019687
:10028000A11DB11D3FBFBA2FA92F982F8827BC01F0
:10029000CD01620F711D811D911D42E0660F771F18
:1002A000881F991F4A95D1F708958F929F92AF9218
:1002B000BF92CF92DF92EF92FF924B015C010E94BE
:1002C00030016B017C010E9430016C197D098E099F
:1002D0009F09683E734081059105A8F321E0821AC9
:1002E0009108A108B10888EEC80E83E0D81EE11C71
:1002F000F11C81149104A104B10429F7FF90EF903F
:10030000DF90CF90BF90AF909F908F9008952FB7C0
:10031000F8946091B9057091BA058091BB059091F0
:10032000BC052FBF0895089508950895AF92BF9218
:10033000CF92DF92EF92FF920F931F93CF93DF93B1
:100340006C017B018B01040F151FEB015E01AE18E0
:10035000BF08C017D10759F06991D601ED91FC9102
:100360000190F081E02DC6010995892B79F7C5012F
:10037000DF91CF911F910F91FF90EF90DF90CF9081
:10038000BF90AF900895FC01538D448D252F30E030
:10039000842F90E0821B930B541710F0CF96089592
:1003A00001970895FC01918D828D981761F0A28DBF
:1003B000AE0FBF2FB11D5D968C91928D9F5F9F7385
:1003C000928F90E008958FEF9FEF0895FC01918D3B
:1003D000828D981731F0828DE80FF11D858D90E0A8
:1003E00008958FEF9FEF0895FC01918D228D892F45
:1003F00090E0805C9F4F821B91098F73992708952D
:1004000089EC95E00E94F40121E0892B09F420E0B9
:10041000822F089580E090E0892B29F00E9400024D
:1004200081110C9400000895FC01A48DA80FB92F30
:10043000B11DA35ABF4F2C91848D90E001968F730C
:100440009927848FA689B7892C93A089B1898C912B
:10045000837080648C93938D848D981306C002887A
:10046000F389E02D80818F7D80830895EF92FF9244
:100470000F931F93CF93DF93EC0181E0888F9B8DC7
:100480008C8D98131AC0E889F989808185FF15C081
:100490009FB7F894EE89FF896083E889F9898081A4
:1004A0008370806480839FBF81E090E0DF91CF9173
:1004B0001F910F91FF90EF900895F62E0B8D10E095
:1004C0000F5F1F4F0F731127E02E8C8D8E110CC004
:1004D0000FB607FCFACFE889F989808185FFF5CF4F
:1004E000CE010E941402F1CFEB8DEC0FFD2FF11D18
:1004F000E35AFF4FF0829FB7F8940B8FEA89FB898C
:1005000080818062CFCFCF93DF93EC01888D8823E9
:10051000B9F0AA89BB89E889F9898C9185FD03C066
:10052000808186FD0DC00FB607FCF7CF8C9185FF4B
:10053000F2CF808185FFEDCFCE010E941402E9CF7A
:10054000DF91CF9108958091090390910A03982734
:100550008927982744972091270330E044E0359578
:1005600027954A95E1F7220F331F220F331F821B75
:10057000930B97FF02C090E080E0089520911D0347
:1005800030911B0330931D0320931B0320911E0306
:1005900030911C0330931E0320931C03E9EFF2E01B
:1005A00021A5820F911D25A585A7662381F021A78E
:1005B000892F9927319722E0E53FF20789F71092BA
:1005C0002B0310922C0380E580932703089511A636
:1005D000EFCF0F931F93CF93DF9370E067507D4F62
:1005E0008A01075F1F4F213029F0223031F48A0140
:1005F0000250110930E020E003C000E010E0980153
:10060000EB01FA01E230F10558F0A991B991BA274E
:10061000AB27BA270A0F1B1F211D311D3297F2CFBE
:10062000FA01EE7F6E0F7F1F4E175F0769F0FB0127
:10063000408150E070E060E0762F652F542F442712
:10064000040F151F261F371FA9016627772741159D
:1006500051056105710519F022273327F1CF009567
:100660001095E82FF0E0E750FD4F10830183DF91F4
:10067000CF911F910F910895E9EFF2E0108E118E46
:1006800080E4848B158A868B20E044E150E06EE0A4
:1006900088E10C94E9028EBD0DB407FEFDCF0895EC
:1006A00061E08091AB020E94B30078940895F894C1
:1006B00060E08091AB020C94B3000F931F93CF9333
:1006C000DF93EC018B010E9457032097B9F08AE376
:1006D0000E944B031EBCF801CE01019739F00DB406
:1006E00007FEFDCF2EB51EBC2193F7CF2197C00F7B
:1006F000D11F0DB407FEFDCF8EB58883DF91CF915A
:100700001F910F910C9450031F93CF93DF93182FD9
:10071000C62FD42F0E9457038C2F8F71812B0E94DC
:100720004B038D2F0E944B03DF91CF911F910C94AF
:100730005003CF93C82FC0768091A2028C1799F0F6
:1007400043E06FE180EA0E948403C093A2024C2F31
:1007500050E085E0559547958A95E1F76FE180E88F
:10076000CF910C948403CF910895CF93DF93C82F3A
:10077000D62F0E9499034D2F6C2F80E4DF91CF91EB
:100780000C948403CF93DF93C82FD72F0E94B50317
:100790006D2F81E08C0FDF91CF910C94B503CF9337
:1007A000C82F0E9499030E9457038C2F8F710E94BB
:1007B0004B0380E00E944B03C7FF03C080E00E9410
:1007C0004B03CEB50E9450038C2FCF910895CF9349
:1007D000DF93EC0140E86FE180E80E94840340E889
:1007E0006FE180EA0E9484034AE06CE180EA0E94A3
:1007F000840360E07CE082E00E94C203BE01745F7B
:1008000086E00E94C20340E060E08AE70E94840321
:100810000E9457032097B1F08AE70E944B03809112
:10082000F9028EBDEAEFF2E0C750DD4FEC17FD078D
:1008300031F081910DB407FEFDCF8EBDF7CF0DB421
:1008400007FEFDCF0E94500348E06FE180E80E9460
:100850008403D0E0C0E08CE10E94CF038A7029F4C9
:100860002196C83E83E0D807B1F78CE10E94CF0300
:1008700081FD03C0C83ED34039F448E06FE180EA0F
:10088000DF91CF910C948403DF91CF910895CF93A2
:10089000DF93EB01682F84ED0E94B503BE0186ED66
:1008A0000E94C2038AEE0E94CF0380FDFBCFDF913E
:1008B000CF910895CF92DF92EF92FF920F931F9303
:1008C0008634910568F120911C03233449F5C090CA
:1008D0002703D0902803E0902903F0902A03009189
:1008E000BD021091BE022091BF023091C002C0161D
:1008F000D106E206F306A1F4E3E1F4E087509D4F50
:100900009F012E5F3F4F41815081553319F4528131
:10091000651771F0F901E40FF11DE817F90780F38D
:1009200080E01F910F91FF90EF90DF90CF9008959E
:1009300081E0F7CFE091A002F091A1029F012F5F2B
:100940003F4F3093A1022093A00280830895FF922D
:100950000F931F93CF93DF93162FF42E052F0E9432
:100960009A04812F0E949A04CF2DD02F115020F08D
:1009700089910E949A04FACFDF91CF911F910F9134
:10098000FF90089520915602260F3327331F2132FE
:100990003105ECF420917A02FC0190E080E02430F3
:1009A00069F082E00895A09156022191AC014A5C61
:1009B0005D4FA40FB52FB11D2C930196861798F3A8
:1009C00080915602680F6093560280E0089581E09E
:1009D000089510927A0281E080937C0210927B024B
:1009E00061E082E10E94B30061E083E10E94B30014
:1009F000E9EBF0E080818E7F808380818D7F808332
:100A000088E48093B80085E48093BC000895CF9378
:100A1000DF9391E0909335028823B9F0C091B8003C
:100A2000D091BA008091BC008A7B8093BC0060E0CA
:100A300082E10E94B30060E083E10E94B3000E9463
:100A4000E904D093BA00C093B800DF91CF91089524
:100A50000895E091AA028091A902E81730F4F0E02D
:100A6000E05FFD4F808190E008958FEF9FEF089544
:100A70009091AA028091A9022FEF3FEF981748F4B6
:100A8000E92FF0E0E05FFD4F208130E09F5F909321
:100A9000AA02C90108958091A9029091AA02891B16
:100AA000990B0895CF92DF92EF92FF920F931F93CD
:100AB000CF93DF937C01CB018A0120910F02222387
:100AC00089F0EB016B01C40ED51ECC15DD0569F074
:100AD0006991D701ED91FC910190F081E02DC70162
:100AE0000995F3CF642F0E94C204C801DF91CF9112
:100AF0001F910F91FF90EF90DF90CF900895CF93CB
:100B0000DF931F92CDB7DEB7698320910F022223B6
:100B1000F9F02091A702203258F021E030E0FC01EA
:100B20003383228390E080E00F90DF91CF9108958E
:100B30008091A802E82FF0E0E151FE4F9981908367
:100B40008F5F8093A8028093A70281E090E0ECCFB2
:100B500061E0CE0101960E94C204F7CFCF92DF92EE
:100B6000EF92FF920F931F93CF93DF93FC01C48109
:100B700021E020930F02C093EE011092A802109280
:100B8000A7028385682B86E696E00E947F05D091B8
:100B9000A702D13208F092C00E9430016B017C01A3
:100BA00080917A02811165C082E080937A0281E0AF
:100BB00080937C028FEF8093790210929E02D093F3
:100BC0009D02AFEEB1E0EDE7F2E080E0D81385C022
:100BD00010929F0280919F02CC0FC82BC0939F025E
:100BE00080917B02813009F07CC010927B020E94D0
:100BF00030016B017C0180919F028093BB0080914A
:100C0000310290913202A0913302B0913402892BCB
:100C10008A2B8B2B99F00E943001009131021091A8
:100C2000320220913302309134026C197D098E0911
:100C30009F090617170728073907E0F18091BC00C4
:100C400083FDD9CF85EC8093BC000E9430016B01FD
:100C50007C0180917A02823009F445C0809179024A
:100C60008F3F61F180917902803241F18091790268
:100C700025C08091310290913202A0913302B0914F
:100C80003402892B8A2B8B2B09F48ACF0E943001E6
:100C900000913102109132022091330230913402DE
:100CA0006C197D098E099F09061717072807390750
:100CB00008F076CF809130020E9407051092A802BA
:100CC0001092A70210920F02DF91CF911F910F9106
:100CD000FF90EF90DF90CF9008959D9191938F5F5B
:100CE00075CF85EEB0CF8091310290913202A09104
:100CF0003302B0913402892B8A2B8B2B09F4A9CFB4
:100D00000E94300100913102109132022091330291
:100D1000309134026C197D098E099F090617170757
:100D20002807390708F095CFC5CF90E080E00895F7
:100D300060E087E00E94B30060E086E00C94B300BE
:100D400060E087E00E94B30061E086E00E94B300AB
:100D50006CE271E080E090E00E9455010C949806EE
:100D60000F931F93CF938C01C62F0E94AE056C2F5B
:100D70006460C8010E94AE056C2F6B7FC8010E94A1
:100D8000AE0583EC90E00197F1F7CF911F910F91A1
:100D900008950F931F93CF93DF938C01D62FC42F09
:100DA000607F642B0E94B00680E1D89FB0011124BF
:100DB0006C2BC801DF91CF911F910F910C94B0065D
:100DC000CF93DF93CDB7DEB728970FB6F894DEBF89
:100DD0000FBECDBF88E0E6E3F1E0DE0111960190A1
:100DE0000D928A95E1F78091A90681111AC08FEFC3
:100DF00090E0880F991F21E030E02C0F3D1F820FFB
:100E0000931FFC016081606840E081EA96E02896CB
:100E10000FB6F894DEBF0FBECDBFDF91CF910C941B
:100E2000C90681E0E5CF40E061E081EA96E00E94FA
:100E3000C9068BE39FE10197F1F7089541E00E9415
:100E4000C90681E090E00895DC0196E0FB01019085
:100E50000D929A95E1F70895CF93DF93EB0144E06B
:100E600050E0BC0185E193E00E944F18892B49F4C2
:100E70006FE073E0CE010E94240781E0DF91CF9103
:100E8000089580E0FBCFBC0189EF92E00E94240727
:100E90006EEC72E08FEF92E00C942407DC0194E09A
:100EA000FB0101900D929A95E1F708950F931F931E
:100EB000CF938C018EE391E00E944307E9EFF2E0CB
:100EC00088E08487C6E0C58748E050E06CE670E0C3
:100ED00087E093E00E940D16E9E1F3E0DF011D9247
:100EE000CA95E9F76EEC72E08FE093E00E94240768
:100EF000B8018FE193E00E944E0765EC75E085E153
:100F000093E00E944E078AE290E0CF911F910F91EB
:100F10000C94E7038FEF92E00E94430763E173E0D4
:100F200087E193E00E944E0765EC75E083E193E072
:100F30000E944E070C943C03CF93DF93EB010E9479
:100F40004307BE0187E193E00E944E0765EC75E020
:100F500083E193E0DF91CF910C944E07FB01019068
:100F60000020E9F73197AF01461B570BDC01ED91EB
:100F7000FC910280F381E02D0994EF92FF920F9390
:100F80001F93CF93DF938C01E9EFF2E086E191E0CC
:100F9000DF019C011D9221503040E1F78091CD028C
:100FA000CEE3D1E0833011F4C8EBD2E0CE010E9451
:100FB0009300BE01882309F4ACC088ED92E00E9442
:100FC0009C078881807F803E91F088819981AA81E9
:100FD000BB818F3F9F4FAF4FBF4F49F044E050E080
:100FE000BE0184ED92E00E944F18892B31F46EE32C
:100FF00071E089EF92E00E94240788E08093050366
:101000001092060349E050E064E770E087E093E067
:101010000E940D161092090381E180931003109233
:101020001D0383E480931E0310921B0384E48093CA
:101030001C0310921F0310922103109222036EE3EF
:1010400071E089EF92E00E94240781E080932303FE
:101050008093240386E0809325038091BD029091C4
:10106000BE02A091BF02B091C0028093270390936B
:101070002803A0932903B0932A03C091CD02C33063
:1010800031F465EC75E08FE293E00E944E076EEC60
:1010900072E08FE393E00E9424078FE094E0909346
:1010A000A1028093A002E8E6F0E084910E949A04F5
:1010B000E9E6F0E084910E949A04EAE6F0E0849187
:1010C0000E949A04EBE6F0E084910E949A0485E382
:1010D0000E949A0481E00E949A0483E0C11101C039
:1010E00081E00E949A048DE30E949A0487E00E94A6
:1010F0009A0481E00E949A048EECE82E82E0F82E99
:10110000C7E0C15049F0D7018D917D010E949A043A
:10111000F8CF8EED92E053CF80910001882371F0DB
:1011200060E071E0FB0101900020E9F7BF01615030
:10113000714040E051E08CE00E94A70401151105C8
:1011400059F0A80164E082E30E94A70448EB52E052
:1011500064E086E30E94A70487E30E949A0483E088
:101160000E949A0481E00E949A0483E00E949A04FB
:1011700086E00E949A048FEF0E949A04C091A00218
:10118000D091A102C352D340CE014C969093090353
:1011900080930A030E943C03CE01089690931F039C
:1011A00080932003AE01405F5F4F21E06AE188E257
:1011B0000E94E902CE018A96DF91CF911F910F9193
:1011C000FF90EF900C94E7030F931F93CF93DF935F
:1011D0008C01EB01FC01808191810097E1F0688135
:1011E000798161157105A9F0428153812C813D817E
:1011F0004217530770F00E9465188C819D81F80199
:10120000958384831D821C82DF91CF911F910F9162
:1012100008950E94091788819981F801918380833C
:101220008A819B81938382838C819D819583848332
:10123000198218821B821A82E5CFCF93DF93EC01CB
:1012400088819981009711F00E94091719821882EC
:101250001D821C821B821A82DF91CF910895FC01AE
:1012600080819181009711F00C9409170895CF9314
:10127000DF93EC010D960E942F09CE0106960E9485
:101280002F09CE01DF91CF910C942F090F931F935B
:10129000CF93DF93EC0188819981009759F02A81DF
:1012A0003B812617370730F081E0DF91CF911F9106
:1012B0000F9108958B016F5F7F4F0E9492170097E7
:1012C00059F0998388831B830A832C813D81232BCA
:1012D00059F7FC011082E8CF80E0E7CFEF92FF9250
:1012E0000F931F93CF93DF936115710541F480E055
:1012F000DF91CF911F910F91FF90EF9008954115CD
:101300005105B1F07B01EC010C811D81040F151F0B
:10131000B8010E944609882351F3288139818C81C4
:101320009D81B701820F931F0E9465181D830C8356
:1013300081E0DECFEF92FF920F931F93CF93DF9365
:10134000EC017B018A01BA010E94460981110BC0A0
:10135000CE010E941D09CE01DF91CF911F910F9107
:10136000FF90EF9008951D830C83B70188819981C8
:101370000E946518F0CFFB0101900020E9F731973A
:10138000AF01461B570B0C949A091092B7051092A7
:10139000B60589EC95E00E94830264EE71E082E775
:1013A00096E00E94BB090E9413076CED71E081EA90
:1013B00096E00E94AE070E94E00664E771E081EAD1
:1013C00096E00E94AE0760E089E00E94B30060E012
:1013D00088E00C94B300CF93DF93EC01FB018617F8
:1013E000970749F0608171816115710541F0448171
:1013F00055810E949A09CE01DF91CF9108950E94F4
:101400001D09F9CFFC01118210821382128215820C
:1014100014820C94EB09FC01118210821382128257
:10142000158214826115710551F0FB0101900020B5
:10143000E9F73197AF01461B570B0C949A090895B1
:10144000AF92BF92CF92DF92EF92FF920F931F93D2
:10145000CF93DF936C015B017A0189012417350773
:1014600020F48F2D7901042F182F64EE71E0C6014E
:101470000E940B0AD5011496CD91DC91EC16FD0665
:10148000E0F40C171D0708F4E801D501ED91FC917B
:101490001197EC0FFD1F108110826D917C916E0DE4
:1014A0007F1DC60161157105A1F00E94BB09F50100
:1014B00080819181C80FD91F1883C601DF91CF9118
:1014C0001F910F91FF90EF90DF90CF90BF90AF9062
:1014D00008950E941D09EBCFCF93DF93EC0164EEDA
:1014E00071E00E940B0A64EE71E0CE0106960E9444
:1014F0000B0A1C8664EE71E0CE010D960E940B0A69
:101500001B8A1C8A1D8A1E8ADF91CF9108950F9332
:101510001F93CF93DF9300D000D000D0CDB7DEB7BC
:101520008C010E941307F8018485811119C06DE7B1
:1015300071E081EA96E00E94AE070E94E0066DE845
:1015400071E081EA96E00E94AE0726960FB6F89405
:10155000DEBF0FBECDBFDF91CF911F910F910895D8
:101560006DE971E081EA96E00E94AE070E94E00614
:101570006EEA71E0CE0101960E940B0AF8014189E2
:10158000528965857685CE0101960E946E0981118A
:1015900004C0CE0101960E941D0944E050E065EBB5
:1015A00071E0CE0101960E946E09811104C0CE0146
:1015B00001960E941D09F801428553856681778155
:1015C000CE0101960E946E09811104C0CE010196E0
:1015D0000E941D094D815E8169817A8181EA96E0D0
:1015E0000E949601CE0101960E942F09AECF85ED93
:1015F0008093BC008091310290913202A09133021D
:10160000B09134020796A11DB11D23E0B695A795B0
:10161000979587952A95D1F72091BC0024FD03C0AA
:1016200010927A02089540913102509132026091F5
:10163000330270913402452B462B472B69F30097F8
:10164000A105B10541F02AE22A95F1F700C0019702
:10165000A109B109E1CF809130020C9407051F92D6
:101660000F920FB60F9211242F933F938F939F9356
:10167000AF93BF938091B9059091BA05A091BB0536
:10168000B091BC053091B80523E0230F2D3758F5F4
:101690000196A11DB11D2093B8058093B9059093C3
:1016A000BA05A093BB05B093BC058091BD05909190
:1016B000BE05A091BF05B091C0050196A11DB11D49
:1016C0008093BD059093BE05A093BF05B093C00560
:1016D000BF91AF919F918F913F912F910F900FBE2E
:1016E0000F901F90189526E8230F0296A11DB11D9B
:1016F000D2CF1F920F920FB60F9211242F933F93C8
:101700004F935F936F937F938F939F93AF93BF9309
:10171000EF93FF9389EC95E00E941402FF91EF9103
:10172000BF91AF919F918F917F916F915F914F91F9
:101730003F912F910F900FBE0F901F9018951F9201
:101740000F920FB60F9211242F938F939F93EF93C5
:10175000FF93E091D905F091DA058081E091DF05F2
:10176000F091E00582FD1BC090818091E2058F5FC2
:101770008F732091E305821741F0E091E205F0E0DC
:10178000E753FA4F958F8093E205FF91EF919F9178
:101790008F912F910F900FBE0F901F901895808101
:1017A000F4CF1F920F920FB60F9211242F933F93F5
:1017B0004F935F936F937F938F939F93AF93BF9359
:1017C000EF93FF938091B900887F803609F44AC077
:1017D000F0F5883209F4A7C018F5803109F49BC0F0
:1017E000B8F4882309F4F9C0883009F494C0FF9153
:1017F000EF91BF91AF919F918F917F916F915F9189
:101800004F913F912F910F900FBE0F901F90189501
:10181000883109F488C0803251F78093790214C06E
:10182000803409F49DC040F48033B9F38833F9F66D
:101830008093790285ECB0C0803509F485C0883585
:1018400009F496C0883499F60E94F70AD0CF8839F7
:1018500009F48CC038F5883729F050F4883611F037
:10186000803729F683E080937A021092780257C07D
:10187000883809F47BC0803919F0803809F0B7CF77
:1018800080917802803208F071C0E091780281E0A6
:101890008E0F809378028091BB00F0E0E85AFD4FF4
:1018A00080833DC0803B39F0E0F4803A09F479C090
:1018B000883A09F09CCF84E080937A021092570214
:1018C00010925602E091A502F091A602099580912E
:1018D000560281110FC081E08093560210923602A9
:1018E00009C0803C09F4A6CF883C09F4A3CF883B0B
:1018F00009F07DCFE091570281E08E0F809357026F
:10190000F0E0EA5CFD4F80818093BB00909157022C
:101910008091560229C080919F028093BB0085EC84
:101920008093BC0064CF90919E0280919D02981795
:1019300058F5E0919E0281E08E0F80939E02F0E0C8
:10194000E358FD4F8081E9CFE0919E0281E08E0F48
:1019500080939E028091BB00F0E0E358FD4F8083AE
:1019600090919E0280919D029817C8F285E8D8CF89
:10197000E0919E0281E08E0F80939E028091BB00D9
:10198000F0E0E358FD4F808380917C0281115CCFB1
:1019900081E080937B0284EA8093BC0010927A02FB
:1019A00026CF85EC8093BC0010927A028091780259
:1019B000803230F4E0917802F0E0E85AFD4F108276
:1019C0006091780270E0E091A302F091A40288E5B2
:1019D00092E00995109278020ACF1092790234CFE2
:1019E000262F206120932803643021F0009711F402
:1019F00081E090E061E00E94BE021092090388E25B
:101A000080930A030E948A0784E08093290310923E
:101A10002A0322E04CE150E06AE182E30E94E902FD
:101A200086E390E00C94E703E9ECF5E01382128280
:101A300088EE93E0A0E0B0E084839583A683B7832B
:101A400028E431E03183208325EC30E0358724879A
:101A500024EC30E03787268720EC30E0318B208B78
:101A600021EC30E0338B228B22EC30E0358B248B61
:101A700026EC30E0378B268B118E128E138E148E4F
:101A8000E6E6F6E01382128284839583A683B78309
:101A90008AE591E091838083E1EAF6E01382128285
:101AA0008CE691E09183808380E2848380E181876A
:101AB00082E0828713866AEB71E08FE896E00E94ED
:101AC0000B0A65EC71E085E996E00E940B0A60ED77
:101AD00071E08BE996E00E940B0A88E796E00E948D
:101AE0006C0A64EE71E082E796E00C940B0ACF93E7
:101AF000DF93CDB7DEB7E5970FB6F894DEBF0FBE24
:101B0000CDBF789484B5826084BD84B5816084BD86
:101B100085B5826085BD85B5816085BD80916E008B
:101B2000816080936E0010928100809181008260BC
:101B300080938100809181008160809381008091F9
:101B400080008160809380008091B10084608093E8
:101B5000B1008091B00081608093B00080917A00E4
:101B6000846080937A0080917A00826080937A000A
:101B700080917A00816080937A0080917A008068F9
:101B800080937A001092C1001092AA021092A902CA
:101B90001092A8021092A7020E94E90483E991E042
:101BA0009093A6028093A50284E991E09093A40209
:101BB0008093A3021092A6068091AB06823018F0A3
:101BC00098E09093A6068093A90662E370E080E017
:101BD00090E00E9455016091AC0681EA96E00E9477
:101BE000AE0568EE73E080E090E00E94550160E38E
:101BF00081EA96E00E94B0060BE416E4C801019762
:101C0000F1F760E381EA96E00E94B006C80101970F
:101C1000F1F760E381EA96E00E94B00683E592E086
:101C20000197F1F760E281EA96E00E94B0066091C8
:101C3000A606606240E081EA96E00E94C90684E060
:101C40008093A70640E06CE081EA96E00E94C90616
:101C50000E94130712E01093A80640E066E081EAB4
:101C600096E00E94C90640E062E081EA96E00E94A8
:101C7000C9068BE39FE10197F1F761E089E00E94DB
:101C8000FF0061E088E00E94FF0061E087E00E94C1
:101C9000FF0061E086E00E94FF0060E081E00E94BA
:101CA000FF0060E089E00E94B30060E088E00E94ED
:101CB000B3000E94980688E08093AC0660E081EA59
:101CC00096E00E94AE056BED71E081EA96E00E941D
:101CD000AE070E94E00664E771E081EA96E00E94A8
:101CE000AE07E091D905F091DA051083E091D505B2
:101CF000F091D6051082E091D705F091D8058FECD0
:101D000080831092E105E091DD05F091DE0586E02B
:101D10008083E091DB05F091DC0580818061808328
:101D2000E091DB05F091DC05808188608083E091A3
:101D3000DB05F091DC05808180688083E091DB0524
:101D4000F091DC0580818F7D80831092F80287E31B
:101D500090E0C12CD12C7601C3940097C1F0FC0116
:101D6000B3E0F595E795BA95E1F7E455FD4F282FD7
:101D70002770B701A60104C0440F551F661F771FC7
:101D80002A95D2F72081242B20830197E6CF68E2A1
:101D900071E08EEC92E00E9424078CEB92E090932D
:101DA000B4028093B3020CB406FC25C061E08AE063
:101DB0000E94FF0061E08AE00E94B30061E08BE0D6
:101DC0000E94FF0061E08DE00E94FF0060E08CE077
:101DD0000E94FF0061E08BE00E94B30060E08BE0B6
:101DE0000E94B30060E08DE00E94B30080E58CBDEE
:101DF0008DB581608DBD8AE08093AB0261E00E9469
:101E0000FF000E9450034FEF60E08FEF0E948403B9
:101E100062E070E080E090E00E9455010E9457036C
:101E20008DE10E944B0380E00E944B031EB50E948F
:101E30005003112399F370E060E088E00E94C20330
:101E400070E060E08CE00E94C2036FEF7BE08AE00C
:101E50000E94C20360E07CE084E00E94C2036FEF56
:101E600071E186E00E94C20366E774E084E10E94AB
:101E7000470461EB88E30E94B5036FE370E388E2F7
:101E80000E94C20369EF77EF80E30E94C20361E022
:101E900080EC0E94B50342E362EC80E80E94840378
:101EA00062E17CE086EC0E94C20362E184EC0E9465
:101EB000B5036CED75E08AEC0E94C2036091CE021E
:101EC00084EE0E94B5036091CF0285EE0E94B503B7
:101ED0006091D00282EE0E94B5036091D10283EE40
:101EE0000E94B5036091D20280EE0E94B50360911A
:101EF000D30281EE0E94B50360E071E080E10E94B0
:101F000047048FE10E94990340EC6BE180E80E9456
:101F1000840344E06FE180E80E94840382E70E942A
:101F2000CF031092F80264E271E085EC95E00E9424
:101F30004E071092F6021092F50281E08093F702AC
:101F400060E271E081EF92E00E944E07E5ECF5E07F
:101F500021EC35E064ED72E049EC55E09191D90156
:101F60008D919D018095892BDB018D93BD014E17CD
:101F70005F07A1F78E010F5F1F4FE2E06E2E712CFD
:101F8000F7E15F2EA0E02A2EA0E03A2E89EC95E042
:101F90000E94F4011816190674F489EC95E00E9469
:101FA000D20189831A8241E050E0B80182E796E0CD
:101FB0000E946E09EBCF80917606909177060B9781
:101FC00030F48091B6059091B705029751F464EE14
:101FD00071E082E796E00E94BB0989EC95E00E94DF
:101FE000830280917606909177060A9709F0D0C413
:101FF00060917206709173064AE050E089EC95E0BA
:102000000E94960162EE71E089EC95E00E94AE07B5
:1020100062E776E0CE01C0960E94020A1092840622
:102020007092B7056092B605BE01605D7F4FCE012C
:102030008A960E94020ABE01665D7F4FC8010E9417
:10204000020A86E0E8E2F1E0A7E0B3E001900D9239
:102050008A95E1F78091240190912501A0912601B4
:10206000B091270180930D0390930E03A0930F036B
:10207000B09310038091200190912101A091220141
:10208000B09123018093170390931803A093190331
:10209000B0931A0369817A814D815E8183E293E076
:1020A0000E945C188FE290E00E94E703C8010E9442
:1020B0002F098091B702882379F06091B502709161
:1020C000B6026115710509F035C16FEF7BE08CE058
:1020D0000E94C2031092B70289E30E94CF03F12C41
:1020E000E12C8823C9F16091B5027091B60280E0BD
:1020F0000E94C203B80186E090E00E945D038981DE
:102100009A819093B6028093B5028D819E817C0165
:10211000B0E8EB22FF2487FF13C08B819C810497DA
:10212000E090B302F090B402E1E0EE1AF1088E15EF
:102130009F0508F47C0169EF72E0C7010E945D030E
:10214000F701E750FD4F108281E08093B70240E431
:102150006EE180E80E9484038091F802882369F090
:102160008091CD02823009F4EEC008F0E6C08823E9
:1021700009F472C1813009F48EC1E114F10409F04F
:1021800017C28091F702857029F18091F502909134
:10219000F602892BF9F461E184ED0E94B50361E058
:1021A00082ED0E94B5038AEE0E94CF0380FDFBCF33
:1021B00060E082ED0E94B50389ED0E94CF0382FFAB
:1021C00009C081EF92E00E9456078091F702886073
:1021D0008093F7028091F5029091F6020196909318
:1021E000F6028093F5028091F002813009F06FC011
:1021F0008091F70281FF6BC082E08093F0028091B2
:102200002F018F5F80932F018F71F82E86EE92E061
:102210000E94930066EE72E0882309F4C6C188ED3F
:1022200092E00E949C0728E0E22EE09205031092C3
:10223000060349E050E064E770E087E093E00E9425
:102240000D168CE280930A0386E0809310030E94AF
:102250003C0310921D0310921E038BE080931B031E
:10226000F0921C03EFE1F3E0DF011D92EA94E9F73D
:1022700080912E01809321038D5F80932E0180E653
:102280008093270382E08093280393E090932903AF
:1022900010922A0310922B0310922C0310922D03FC
:1022A00010922E0380932F0394E090933003809339
:1022B000310386E28093320322E040E250E06AE19B
:1022C00082E30E94E9028AE390E00E94E7038CEE39
:1022D00092E00E949300882379F08091EB028111B3
:1022E0000BC08091EA02811107C08CEE92E00E943F
:1022F000560781E08093EA0286EE92E00E94930006
:10230000882379F08091E50281110BC08091E4026D
:10231000811107C086EE92E00E94560781E080930B
:10232000E402D801E52D1D92EA95E9F7C8010E9463
:102330006C0AF2C261507109CACE833009F457C0E9
:10234000843009F01ACF65E0C7010E945A0488233F
:1023500009F4C8C08091BC02811108C088E30E94C2
:10236000CF03682F6E7F88E30E94B50363E373E0B9
:1023700085EC95E00E944E07E3E1F4E0C701875049
:102380009D4F4C016F0192E0C90ED11C41808081AC
:10239000863009F4F9C008F0BCC0813009F4EAC005
:1023A000833009F4EDC0F601E40DF11DE815F905DF
:1023B00048F30E9487016093C5027093C602809320
:1023C000C7029093C8028091F102882361F01092B5
:1023D000F6021092F50281E08093F70261EF72E05D
:1023E000CB010E944E0783E08093CD02C6CE809041
:1023F000C9029090CA02A090CB02B090CC02FFEF2D
:102400008F169F06AF06BF0609F4B7CE0E9487015C
:102410002091C5023091C6024091C7025091C80276
:10242000621B730B840B950B681579058A059B0558
:1024300008F4A3CE85EC95E00E94BD0784E080936C
:10244000CD020E9487016093C1027093C202809303
:10245000C3029093C40291CE0E9487016093BD0293
:102460007093BE028093BF029093C002E5ECF5E04A
:1024700084E0DF011D928A95E9F790E080E00E94F8
:10248000BD0788E30E94CF03682F616088E30E9444
:10249000B50381E0D4CF62E0C7010E945A048823CB
:1024A00009F163E373E0C8010E944E07E3E1F4E041
:1024B000C70187509D4FBF016E5F7F4F21813081E3
:1024C000363349F488EB92E00E944E07C8010E941F
:1024D000BD0782E0B4CFFB01E20FF11DE817F90759
:1024E00050F3F4CF0E9487012091C1023091C202C3
:1024F0004091C3025091C402621B730B840B950B75
:10250000613177428105910508F437CE1092CD02F2
:1025100034CE8A3331F08F3F09F44BCF833309F047
:1025200042CF1092C9021092CA021092CB021092AE
:10253000CC02F601C601049620E030E0A9016191C9
:10254000542F432F322F2227260F311D411D511D9D
:102550008E179F07A1F72F3FAFEF3A074A075A0799
:10256000B9F42093C9023093CA024093CB0250932E
:10257000CC0219CFB60181EC95E00E944E0713CF33
:10258000B60181EF92E0F9CFB6018CEE92E0F5CF83
:10259000A8EEB3E00E9416166093C9027093CA02B7
:1025A0008093CB029093CC02FECE8EED92E039CE9A
:1025B000B9E2EB16F10408F4B4CE8091050388303B
:1025C00009F0AFCE80910603863009F0C9C244E01D
:1025D00050E065EC75E08FE193E00E944F18892B85
:1025E00009F09FCE80910E03813029F58FEF92E0A4
:1025F0000E94430710920D0382E080930E036FE068
:1026000073E089E193E00E9424076EEC72E08FE0B2
:1026100093E00E94240765E173E08FE193E00E945C
:102620004E0765EC75E085E193E00E944E078AE273
:1026300090E00E94E7038091F70283FF0EC0F090C4
:102640000E03E2E0FE1209C06EED72E081EF92E04F
:102650000E942C078111F092F7028091EB02811108
:1026600011C08091EA02882369F068ED72E08CEE77
:1026700092E00E942C07882329F081E08093EB02EE
:102680001092EA028091E50281114BCE8091E40222
:10269000882309F446CE68ED72E086EE92E00E944F
:1026A0002C07882309F43DCE81E08093E502109247
:1026B000E40237CEF6E3EF16F10408F432CE8630AA
:1026C00009F02FCE80911D038B3009F05DC044E0EE
:1026D00050E066EE72E083E193E00E944F18892B90
:1026E00009F01FCEF090280385E0F2FC45C00E945F
:1026F000A3022091F002223091F53F2D30712F2D51
:102700002271223101F560E090E080E00E94F00C3F
:1027100088E18093280383E08093F00210920903FC
:1027200088E280930A030E943C0310922B031092CC
:102730002C0322E04CE150E06AE182E30E94E902CE
:1027400086E390E053C221E02093F0020196332308
:1027500011F090E080E064E00E94F00CE2CD2530C2
:1027600009F4DFCDF0FE0BC0233009F4DACD69E0C7
:1027700001960E94F00C86E08093F002D2CD60E0DA
:10278000009709F4CECDE8CF8111CBCD80911E0307
:10279000803509F0C6CDC09028032C2D2270D22E92
:1027A000C1FE39C0109209038CE280930A030E9493
:1027B0008A0782E18093280360E081E090E00E9434
:1027C000BE0210921F031092200380912E0180936D
:1027D0002103109222038D5F80932E0182E080936B
:1027E0002F0384E08093300385E0809331031092BF
:1027F000320390E6909327038093290388E7809320
:102800002A0322E040E250E06AE182E30E94E9020A
:102810008AE390E0EBC1C4FE84CD0E94A302892B21
:1028200009F426C16091270370E084E075956795EF
:102830008A95E1F7660F771F660F771F6E5D7F4FF2
:10284000E616F70608F46DCD67507D4FCE018496ED
:102850000E940B0A65EE71E0C8010E940B0A4D81CF
:102860005E8188A599A58417950780F08CA19DA10C
:10287000009761F069817A816115710539F00E94D4
:102880006C18DD24D394892B09F0D12CC8010E9447
:102890002F09DD2009F4F2C0BE016C5D7F4FCE012F
:1028A0004E960E94020AC8010E946C0A81E08D8740
:1028B00022E130E048E050E0BE01625E7F4FCE0191
:1028C00048960E94200ABE01685E7F4FCE0107969F
:1028D0000E94E408CE0148960E942F092AA13BA13C
:1028E00043E150E0BE01625E7F4FCE0148960E94F8
:1028F000200ABE01685E7F4FCE010E960E94E4085A
:10290000CE0148960E942F09CE014E960E942F09B3
:10291000CE0184960E942F09CE018A960E942F092B
:102920008D85882341F181E090E09093B7058093F5
:10293000B605B80188E796E00E94EB09BE01695F21
:102940007F4F8EE796E00E94EB098D858093840689
:10295000BE01625F7F4F85E896E00E94EB098C899B
:102960009D89AE89BF8980938B0690938C06A09336
:102970008D06B0938E06C8010E943709CE01C0961D
:102980000E942F0964EE71E082E796E00E94BB0985
:102990008091B6059091B7058130910509F099C0F5
:1029A00080918B0690918C06A0918D06B0918E0639
:1029B000892B8A2B8B2B09F06AC00E9487016093B8
:1029C0008B0670938C0680938D0690938E0661E043
:1029D00088E00E94B30060E089E00E94B30068E7ED
:1029E00076E0C8010E94020A6EE776E0CE01079603
:1029F0000E94020A809184068D8765E876E0CE0108
:102A00000E960E94020A80918B0690918C06A091EE
:102A10008D06B0918E068C8B9D8BAE8BBF8BC801C3
:102A20000E94870AC8010E9437098091B50581116B
:102A300010C061E087E00E94B30060E086E00E9481
:102A4000B3006CE271E080E090E00E9455010E94CA
:102A5000980681E08093B5052114310409F496CAE3
:102A60000E940002882309F488CA0E94000085CAD7
:102A7000C0FE57CC60E090E080E06ECED801E52D3E
:102A80001D92EA95E9F7C8010E946C0A41CF0E94A5
:102A90008701C0908B06D0908C06E0908D06F09058
:102AA0008E066C197D098E099F0960317742810578
:102AB000910590F210928B0610928C0610928D0662
:102AC00010928E061092B5050E94A0060E94C509BC
:102AD000C3CF029709F661E089E00E94B30060E08D
:102AE00088E00E94B30068E776E0C8010E94020A0D
:102AF0006EE776E0CE0107960E94020A8091840676
:102B00008D8765E876E0CE010E960E94020A8091DC
:102B10008B0690918C06A0918D06B0918E068C8BC1
:102B20009D8BAE8BBF8BC8010E94870AC8010E9493
:102B300037098091B505882361F010928B061092B9
:102B40008C0610928D0610928E061092B5050E948A
:102B5000A00668EB7BE080E090E00E945501B6CFD4
:102B600029E2E216F10409F4DCCB8111DACB809181
:102B70000703853409F0D5CB44E050E065EC75E0FF
:102B800087E193E00E944F18892BA9F044E050E0C0
:102B900064ED72E087E193E00E944F18892B59F0B1
:102BA00044E050E06EE371E087E193E00E944F184B
:102BB000892B09F0B6CB80911003813009F07ACDD2
:102BC00080911B03883009F0ACCB0E948A071092D9
:102BD0001B0380911D03883F28F090911E039F5F87
:102BE00090931E03885F80931D03C7010E94E70333
:102BF00098CB82E796E00E942F0988E796E00E9432
:102C000037098BE996E00E942F0985E996E00E943A
:102C10002F098FE896E00C942F09FB01DC0102C01C
:102C200005900D9241505040D8F708950E945816D3
:102C3000A59F900DB49F900DA49F800D911D112410
:102C400008952F923F924F925F926F927F928F9250
:102C50009F92AF92BF92CF92DF92EF92FF920F932B
:102C60001F93CF93DF93CDB7DEB7CA1BDB0B0FB635
:102C7000F894DEBF0FBECDBF09942A8839884888F2
:102C80005F846E847D848C849B84AA84B984C88488
:102C9000DF80EE80FD800C811B81AA81B981CE0F7F
:102CA000D11D0FB6F894DEBF0FBECDBFED01089564
:102CB000A29FB001B39FC001A39F700D811D11247D
:102CC000911DB29F700D811D1124911D0895EE0F6D
:102CD000FF1F0590F491E02D09940F931F93CF935C
:102CE000DF938230910510F482E090E0E091AF062E
:102CF000F091B00630E020E0B0E0A0E0309799F429
:102D00002115310509F44AC0281B390B243031053F
:102D1000D8F58A819B816115710589F1FB01938347
:102D20008283FE0111C040815181028113814817C5
:102D30005907E0F04817590799F4109761F0129677
:102D40000C93129713961C933296CF01DF91CF917B
:102D50001F910F9108950093AF061093B006F4CF22
:102D60002115310551F04217530738F0A901DB0155
:102D70009A01BD01DF01F801C1CFEF01F9CF9093B6
:102D8000B0068093AF06CDCFFE01E20FF31F819313
:102D900091932250310939832883D7CF2091AD06F2
:102DA0003091AE06232B41F4209132013091330152
:102DB0003093AE062093AD06209130013091310161
:102DC0002115310541F42DB73EB7409134015091A2
:102DD0003501241B350BE091AD06F091AE06E217EC
:102DE000F307A0F42E1B3F0B2817390778F0AC012E
:102DF0004E5F5F4F2417350748F04E0F5F1F50930B
:102E0000AE064093AD06819391939FCFF0E0E0E052
:102E10009CCFCF93DF930097E9F0FC0132971382A8
:102E20001282A091AF06B091B006ED0130E020E033
:102E30001097A1F420813181820F931F2091AD065C
:102E40003091AE062817390709F061C0F093AE063D
:102E5000E093AD06DF91CF910895EA01CE17DF0729
:102E6000E8F54A815B819E0141155105B1F7E90101
:102E7000FB83EA8349915991C40FD51FEC17FD07D5
:102E800061F4808191810296840F951FE9019983F5
:102E90008883828193819B838A83F0E0E0E01296AD
:102EA0008D919C9113970097B9F52D913C911197B5
:102EB000CD010296820F931F2091AD063091AE0690
:102EC0002817390739F6309751F51092B00610924D
:102ED000AF06B093AE06A093AD06BCCFD383C2833A
:102EE00040815181840F951FC817D90761F44E5F47
:102EF0005F4F88819981480F591F518340838A8190
:102F00009B81938382832115310509F0B0CFF09323
:102F1000B006E093AF069ECFFD01DC01C0CF138267
:102F20001282D7CFB0E0A0E0E8E9F7E10C942316D5
:102F30008C01009751F4CB010E946D168C01C801E1
:102F4000CDB7DEB7E0E10C943F16FC01E60FF71FAA
:102F50009C0122503109E217F30708F49DC0D90102
:102F6000CD91DC911197C617D70798F0C530D105E0
:102F700030F3CE0104978617970708F3C61BD70BCB
:102F80002297C193D1936D937C93CF010E9409172F
:102F9000D6CF5B01AC1ABD0A4C018C0E9D1EA091D0
:102FA000AF06B091B006512C412CF12CE12C1097BA
:102FB00031F58091AD069091AE068815990509F01E
:102FC0005CC04616570608F058C0809130019091B9
:102FD0003101009741F48DB79EB740913401509173
:102FE0003501841B950BE817F90708F055C0F093DD
:102FF000AE06E093AD06F90171836083A0CF8D9199
:103000009C91119712966C90129713967C9013973F
:10301000A815B90559F56C0142E0C40ED11CCA14BB
:10302000DB0420F1AC014A195B09DA01129615970D
:1030300080F06282738251834083D9016D937C93C7
:10304000E114F10471F0D7011396FC93EE931297FB
:1030500076CF22968C0F9D1FF90191838083F30117
:10306000EFCFF093B006E093AF0669CF481659064C
:1030700008F42C017D01D3019ACFCB010E946D167B
:103080007C01009749F0AE01B8010E945C18C801AC
:103090000E940917870153CF10E000E050CFFB01D9
:1030A000DC0104C08D910190801921F44150504001
:1030B000C8F7881B990B0895FB01DC0102C0019041
:1030C0000D9241505040D8F70895FB01DC0101906A
:1030D0000D920020E1F70895FB01DC0141505040C2
:1030E00030F08D910190801919F40020B9F7881BF8
:1030F000990B089510E0C8E6D0E004C0FE010E94DC
:1031000067162196C936D107C9F7F894FFCF4172E7
:103110006475696E6F2D454E4332386A36302D30F6
:103120003000000000000000000000000000C0A807
:103130000201C0A802027219692D30380A0100008C
:10314000B10680000000400014005400FFFFFFFFA4
:10315000FFFF0000000036029601C3018302F40164
:10316000D201E601000000007F0552059506280502
:103170004B0538052905000000001E07960195063D
:10318000950120596F757220494400204143434501
:1031900053532044454E49454421005761697420EA
:1031A00033207365636F6E64732100204143434590
:1031B0005353204752414E544544210020446174EA
:1031C000653A002049643A003132333435363738B5
:1031D000393000313131313131313131310030303C
:1031E00030303030303030300020205363616E009A
:0C31F0000D0A004772616E7465640000F7
:107E0000112484B714BE81FFF0D085E080938100F7
:107E100082E08093C00088E18093C10086E0809377
:107E2000C20080E18093C4008EE0C9D0259A86E02C
:107E300020E33CEF91E0309385002093840096BBD3
:107E4000B09BFECF1D9AA8958150A9F7CC24DD24C4
:107E500088248394B5E0AB2EA1E19A2EF3E0BF2EE7
:107E6000A2D0813461F49FD0082FAFD0023811F036
:107E7000013811F484E001C083E08DD089C08234E0
:107E800011F484E103C0853419F485E0A6D080C0E4
:107E9000853579F488D0E82EFF2485D0082F10E0AE
:107EA000102F00270E291F29000F111F8ED06801E7
:107EB0006FC0863521F484E090D080E0DECF843638
:107EC00009F040C070D06FD0082F6DD080E0C81688
:107ED00080E7D80618F4F601B7BEE895C0E0D1E017
:107EE00062D089930C17E1F7F0E0CF16F0E7DF06D8
:107EF00018F0F601B7BEE89568D007B600FCFDCFD4
:107F0000A601A0E0B1E02C9130E011968C91119780
:107F100090E0982F8827822B932B1296FA010C0160
:107F200087BEE89511244E5F5F4FF1E0A038BF0790
:107F300051F7F601A7BEE89507B600FCFDCF97BE46
:107F4000E89526C08437B1F42ED02DD0F82E2BD052
:107F50003CD0F601EF2C8F010F5F1F4F84911BD097
:107F6000EA94F801C1F70894C11CD11CFA94CF0C13
:107F7000D11C0EC0853739F428D08EE10CD085E9AC
:107F80000AD08FE07ACF813511F488E018D01DD067
:107F900080E101D065CF982F8091C00085FFFCCF94
:107FA0009093C60008958091C00087FFFCCF809118
:107FB000C00084FD01C0A8958091C6000895E0E648
:107FC000F0E098E1908380830895EDDF803219F02E
:107FD00088E0F5DFFFCF84E1DECF1F93182FE3DFCA
:107FE0001150E9F7F2DF1F91089580E0E8DFEE27F6
:047FF000FF270994CA
:027FFE00040479
:00000001FF
