:020000040000FA
:100000000C945E000C9486000C9486000C94860080
:100010000C9486000C9486000C9486000C94860048
:100020000C9486000C9486000C9486000C94860038
:100030000C9486000C9486000C9486000C94860028
:100040000C9469060C9486000C94D9060C94B306A3
:100050000C9486000C9486000C9486000C94860008
:100060000C940B070C94860000000000240027006D
:100070002A0000000000250028002B0004040404CE
:100080000404040402020202020203030303030342
:10009000010204081020408001020408102001021F
:1000A00004081020000000080002010000030407FB
:1000B00000000000000000002A08720B11241FBE7F
:1000C000CFEFD8E0DEBFCDBF23E0AAEAB1E001C0A8
:1000D0001D92A235B207E1F711E0A0E0B1E0EEE930
:1000E000FBE102C005900D92AA3AB107D9F710E0E2
:1000F000CDE5D0E004C02197FE010E94C10BCC35B4
:10010000D107C9F70E949C080C94C20D0C94000002
:1001100090E0FC01EC55FF4F2491FC01E057FF4FAC
:100120003491FC01E458FF4FE491EE23C9F02223FF
:1001300039F0233001F1A8F4213019F1223029F1EE
:10014000F0E0EE0FFF1FEE58FF4FA591B4918FB76F
:10015000F894EC91611126C030953E233C938FBFFB
:1001600008952730A9F02830C9F0243049F780914C
:1001700080008F7D03C0809180008F778093800006
:10018000DFCF84B58F7784BDDBCF84B58F7DFBCF88
:100190008091B0008F778093B000D2CF8091B00073
:1001A0008F7DF9CF3E2BDACFCF93DF9390E0FC0128
:1001B000E057FF4F249184589F4FFC01849188237E
:1001C000D1F090E0880F991FFC01E859FF4FA591ED
:1001D000B491FC01EE58FF4FC591D49161110EC04E
:1001E0009FB7F8948C91E22FE0958E238C93288111
:1001F000E223E8839FBFDF91CF9108958FB7F894F2
:10020000EC91E22BEC938FBFF6CF3FB7F89480913F
:100210006C0290916D02A0916E02B0916F0226B5B2
:10022000A89B05C02F3F19F00196A11DB11D3FBF2E
:10023000BA2FA92F982F8827BC01CD01620F711DFD
:10024000811D911D42E0660F771F881F991F4A95F7
:10025000D1F708958F929F92AF92BF92CF92DF9283
:10026000EF92FF924B015C010E9405016B017C0142
:100270000E9405016C197D098E099F09683E734033
:1002800081059105A8F321E0821A9108A108B1081F
:1002900088EEC80E83E0D81EE11CF11C8114910485
:1002A000A104B10429F7FF90EF90DF90CF90BF90A9
:1002B000AF909F908F90089508950895AF92BF9248
:1002C000CF92DF92EF92FF920F931F93CF93DF9322
:1002D0006C017B018B01040F151FEB015E01AE1851
:1002E000BF08C017D10759F06991D601ED91FC9173
:1002F0000190F081E02DC6010995892B79F7C501A0
:10030000DF91CF911F910F91FF90EF90DF90CF90F1
:10031000BF90AF900895FC01538D448D252F30E0A0
:10032000842F90E0821B930B541710F0CF96089502
:1003300001970895FC01918D828D981761F0A28D2F
:10034000AE0FBF2FB11D5D968C91928D9F5F9F73F5
:10035000928F90E008958FEF9FEF0895FC01918DAB
:10036000828D981731F0828DE80FF11D858D90E018
:1003700008958FEF9FEF0895FC01918D228D892FB5
:1003800090E0805C9F4F821B91098F73992708959D
:1003900080E792E00E94BC0121E0892B09F420E073
:1003A000822F089580E090E0892B29F00E94C801F7
:1003B00081110C9400000895FC01A48DA80FB92FA1
:1003C000B11DA35ABF4F2C91848D90E001968F737D
:1003D0009927848FA689B7892C93A089B1898C919C
:1003E000837080648C93938D848D981306C00288EB
:1003F000F389E02D80818F7D80830895EF92FF92B5
:100400000F931F93CF93DF93EC0181E0888F9B8D37
:100410008C8D98131AC0E889F989808185FF15C0F1
:100420009FB7F894EE89FF896083E889F989808114
:100430008370806480839FBF81E090E0DF91CF91E3
:100440001F910F91FF90EF900895F62E0B8D10E005
:100450000F5F1F4F0F731127E02E8C8D8E110CC074
:100460000FB607FCFACFE889F989808185FFF5CFBF
:10047000CE010E94DC01F1CFEB8DEC0FFD2FF11DC1
:10048000E35AFF4FF0829FB7F8940B8FEA89FB89FC
:1004900080818062CFCFCF93DF93EC01888D88235A
:1004A000B9F0AA89BB89E889F9898C9185FD03C0D7
:1004B000808186FD0DC00FB607FCF7CF8C9185FFBC
:1004C000F2CF808185FFEDCFCE010E94DC01E9CF24
:1004D000DF91CF91089520911202260F3327331F09
:1004E00021323105ECF420913602FC0190E080E0ED
:1004F000243069F082E00895A09112022191AC01AC
:100500004E505E4FA40FB52FB11D2C930196861748
:1005100098F380911202680F6093120280E00895B0
:1005200081E008951092360281E0809338021092A3
:10053000370261E082E10E94880061E083E10E946D
:100540008800E9EBF0E080818E7F808380818D7F61
:10055000808388E48093B80085E48093BC0008958C
:10056000CF93DF9391E09093F1018823B9F0C0918C
:10057000B800D091BA008091BC008A7B8093BC0007
:1005800060E082E10E94880060E083E10E948800D0
:100590000E949202D093BA00C093B800DF91CF912D
:1005A00008950895E091630280916202E81730F4A3
:1005B000F0E0E453FE4F808190E008958FEF9FEFCD
:1005C000089590916302809162022FEF3FEF981798
:1005D00048F4E92FF0E0E453FE4F208130E09F5FC4
:1005E00090936302C9010895809162029091630221
:1005F000891B990B0895CF92DF92EF92FF920F9390
:100600001F93CF93DF937C01CB018A012091CB0113
:10061000222389F0EB016B01C40ED51ECC15DD053C
:1006200069F06991D701ED91FC910190F081E02D85
:10063000C7010995F3CF642F0E946B02C801DF91B7
:10064000CF911F910F91FF90EF90DF90CF90089581
:10065000CF93DF931F92CDB7DEB769832091CB0193
:100660002223F9F020916002203258F021E030E09E
:10067000FC013383228390E080E00F90DF91CF91E3
:10068000089580916102E82FF0E0E555FE4F9981D1
:1006900090838F5F809361028093600281E090E09D
:1006A000ECCF61E0CE0101960E946B02F7CFCF92B2
:1006B000DF92EF92FF920F931F93CF93DF93FC0192
:1006C000C48121E02093CB01C093AA011092610262
:1006D000109260028385682B8DE093E00E942803CE
:1006E000D0916002D13208F092C00E9405016B01E6
:1006F0007C0180913602811165C082E080933602D0
:1007000081E0809338028FEF8093350210925A0275
:10071000D0935902ABEAB1E0E9E3F2E080E0D8130C
:1007200085C010925B0280915B02CC0FC82BC093F6
:100730005B0280913702813009F07CC01092370251
:100740000E9405016B017C0180915B028093BB00DC
:100750008091ED019091EE01A091EF01B091F00137
:10076000892B8A2B8B2B99F00E9405010091ED01BA
:100770001091EE012091EF013091F0016C197D098B
:100780008E099F090617170728073907E0F180919E
:10079000BC0083FDD9CF85EC8093BC000E9405018D
:1007A0006B017C0180913602823009F445C0809152
:1007B00035028F3F61F180913502803241F18091A5
:1007C000350225C08091ED019091EE01A091EF01DD
:1007D000B091F001892B8A2B8B2B09F48ACF0E94D0
:1007E00005010091ED011091EE012091EF01309192
:1007F000F0016C197D098E099F0906171707280754
:10080000390708F076CF8091EC010E94B002109277
:100810006102109260021092CB01DF91CF911F9183
:100820000F91FF90EF90DF90CF9008959D9191935D
:100830008F5F75CF85EEB0CF8091ED019091EE0185
:10084000A091EF01B091F001892B8A2B8B2B09F439
:10085000A9CF0E9405010091ED011091EE012091B8
:10086000EF013091F0016C197D098E099F0906177F
:1008700017072807390708F095CFC5CF089590E0EE
:1008800080E0089560E087E00E94880060E086E0F4
:100890000C94880060E087E00E94880061E086E0B8
:1008A0000E9488006CE271E080E090E00E942A01E2
:1008B0000C9442040F931F93CF938C01C62F0E9478
:1008C00057036C2F6460C8010E9457036C2F6B7F25
:1008D000C8010E94570383EC90E00197F1F7CF9194
:1008E0001F910F9108950F931F93CF93DF938C0166
:1008F000D62FC42F607F642B0E945A0480E1D89FBA
:10090000B00111246C2BC801DF91CF911F910F9181
:100910000C945A04CF93DF93CDB7DEB728970FB668
:10092000F894DEBF0FBECDBF88E0E6E0F1E0DE0167
:10093000119601900D928A95E1F780914A038111F9
:100940001AC08FEF90E0880F991F21E030E02C0F44
:100950003D1F820F931FFC016081606840E082E4CC
:1009600093E028960FB6F894DEBF0FBECDBFDF919F
:10097000CF910C94730481E0E5CF40E061E082E424
:1009800093E00E9473048BE39FE10197F1F70895D0
:1009900041E00E94730481E090E00895FC01019021
:1009A0000020E9F73197AF01481B590BBC0182E4E5
:1009B00093E00C945E010F931F93CF93DF93EC01B0
:1009C00088819981009759F02A813B812617370742
:1009D00030F081E0DF91CF911F910F9108958B014D
:1009E0006F5F7F4F0E94EC0C009759F099838883CA
:1009F0001B830A832C813D81232B59F7FC01108234
:100A0000E8CF80E0E7CFEF92FF920F931F93CF9351
:100A1000DF936115710541F480E0DF91CF911F9163
:100A20000F91FF90EF90089541155105B1F07B01B2
:100A3000EC010C811D81040F151FB8010E94DB041D
:100A4000882351F3288139818C819D81B701820FE0
:100A5000931F0E94BB0D1D830C8381E0DECFCF93DB
:100A6000DF93EC0188819981009711F00E94630C5B
:100A7000198218821D821C821B821A82DF91CF91FB
:100A80000895EF92FF920F931F93CF93DF93EC01A2
:100A90007B018A01BA010E94DB0481110BC0CE01E7
:100AA0000E942F05CE01DF91CF911F910F91FF90F2
:100AB000EF9008951D830C83B701888199810E946E
:100AC000BB0DF0CFFB0101900020E9F73197AF019A
:100AD000461B570B0C94410510926602109265025A
:100AE00080E792E00E944B0269EA71E089E193E0BD
:100AF0000E9462050E94BD048CE991E00E94CE0430
:100B00000E948A048EE391E00E94CE0460E089E0B6
:100B10000E94880060E088E00C948800CF93DF9307
:100B2000EC01FB018617970749F06081718161151F
:100B3000710541F0448155810E944105CE01DF914C
:100B4000CF9108950E942F05F9CFFC0111821082E8
:100B500013821282158214820C948E05FC0111827C
:100B600010821382128215821482FB0101900020F0
:100B7000E9F73197AF01461B570B0C944105FC0177
:100B800080819181009711F00C94630C08950F936C
:100B90001F93CF93DF9300D000D000D0CDB7DEB746
:100BA0008C010E94BD04F8018485811115C087E481
:100BB00091E00E94CE040E948A0487E591E00E94A1
:100BC000CE0426960FB6F894DEBF0FBECDBFDF91E0
:100BD000CF911F910F91089587E691E00E94CE0476
:100BE0000E948A0468E771E0CE0101960E94AE057A
:100BF000F8014481558160817181CE0101960E9486
:100C00000305811104C0CE0101960E942F0541E029
:100C100050E068E771E0CE0101960E940305811162
:100C200004C0CE0101960E942F05F801428553852C
:100C300066817781CE0101960E940305811104C06F
:100C4000CE0101960E942F054D815E8169817A81D6
:100C500082E493E00E945E01CE0101960E94BF05EE
:100C6000B0CF85ED8093BC008091ED019091EE01B5
:100C7000A091EF01B091F0010796A11DB11D23E0F5
:100C8000B695A795979587952A95D1F72091BC00A1
:100C900024FD03C01092360208954091ED01509159
:100CA000EE016091EF017091F001452B462B472B2F
:100CB00069F30097A105B10541F02AE22A95F1F701
:100CC00000C00197A109B109E1CF8091EC010C941A
:100CD000B0021F920F920FB60F9211242F933F93E1
:100CE0008F939F93AF93BF93809168029091690215
:100CF000A0916A02B0916B023091670223E0230F4A
:100D00002D3758F50196A11DB11D209367028093E0
:100D1000680290936902A0936A02B0936B0280917B
:100D20006C0290916D02A0916E02B0916F020196DB
:100D3000A11DB11D80936C0290936D02A0936E0271
:100D4000B0936F02BF91AF919F918F913F912F917F
:100D50000F900FBE0F901F90189526E8230F029654
:100D6000A11DB11DD2CF1F920F920FB60F92112469
:100D70002F933F934F935F936F937F938F939F93A3
:100D8000AF93BF93EF93FF9380E792E00E94DC0163
:100D9000FF91EF91BF91AF919F918F917F916F9153
:100DA0005F914F913F912F910F900FBE0F901F9029
:100DB00018951F920F920FB60F9211242F938F93B5
:100DC0009F93EF93FF93E0918002F09181028081E5
:100DD000E0918602F091870282FD1BC09081809194
:100DE00089028F5F8F7320918A02821741F0E09110
:100DF0008902F0E0E059FD4F958F80938902FF91C1
:100E0000EF919F918F912F910F900FBE0F901F9098
:100E100018958081F4CF1F920F920FB60F92112474
:100E20002F933F934F935F936F937F938F939F93F2
:100E3000AF93BF93EF93FF938091B900887F803683
:100E400009F44AC0F0F5883209F4A7C018F58031DA
:100E500009F49BC0B8F4882309F4F9C0883009F478
:100E600094C0FF91EF91BF91AF919F918F917F912E
:100E70006F915F914F913F912F910F900FBE0F9007
:100E80001F901895883109F488C0803251F78093FB
:100E9000350214C0803409F49DC040F48033B9F3A6
:100EA0008833F9F68093350285ECB0C0803509F4BB
:100EB00085C0883509F496C0883499F60E943106B9
:100EC000D0CF883909F48CC038F5883729F050F430
:100ED000883611F0803729F683E08093360210922D
:100EE000340257C0883809F47BC0803919F0803843
:100EF00009F0B7CF80913402803208F071C0E091E0
:100F0000340281E08E0F809334028091BB00F0E0C8
:100F1000EC5EFD4F80833DC0803B39F0E0F4803AC9
:100F200009F479C0883A09F09CCF84E080933602B6
:100F30001092130210921202E0915E02F0915F0291
:100F400009958091120281110FC081E080931202F5
:100F50001092F20109C0803C09F4A6CF883C09F444
:100F6000A3CF883B09F07DCFE091130281E08E0F83
:100F700080931302F0E0EE50FE4F80818093BB001F
:100F8000909113028091120229C080915B0280939C
:100F9000BB0085EC8093BC0064CF90915A02809195
:100FA0005902981758F5E0915A0281E08E0F80930C
:100FB0005A02F0E0E75CFD4F8081E9CFE0915A02F0
:100FC00081E08E0F80935A028091BB00F0E0E75CD5
:100FD000FD4F808390915A02809159029817C8F270
:100FE00085E8D8CFE0915A0281E08E0F80935A02B3
:100FF0008091BB00F0E0E75CFD4F80838091380278
:1010000081115CCF81E08093370284EA8093BC0039
:101010001092360226CF85EC8093BC0010923602E7
:1010200080913402803230F4E0913402F0E0EC5EE2
:10103000FD4F10826091340270E0E0915C02F0910B
:101040005D0284E192E00995109234020ACF109279
:10105000350234CFE0E7F2E01382128288EE93E0AB
:10106000A0E0B0E084839583A683B78322E131E0DA
:101070003183208325EC30E03587248724EC30E071
:101080003787268720EC30E0318B208B21EC30E055
:10109000338B228B22EC30E0358B248B26EC30E036
:1010A000378B268B118E128E138E148EEDE0F3E0AB
:1010B0001382128284839583A683B78384E291E0AE
:1010C00091838083E2E4F3E01382128286E391E06D
:1010D0009183808380E2848380E1818782E08287BC
:1010E00013866AE771E080E393E00E94AE0565E84D
:1010F00071E086E393E00E94AE0560E971E08CE365
:1011000093E00E94AE0569EA71E08FE193E00E94EE
:10111000AE0569EA71E085E293E00E94AE05EFE179
:10112000F3E01486158616861786108A69EA71E040
:1011300089E193E00C94AE05CF93DF93CDB7DEB792
:1011400061970FB6F894DEBF0FBECDBF789484B51B
:10115000826084BD84B5816084BD85B5826085BDB3
:1011600085B5816085BD80916E00816080936E0041
:101170001092810080918100826080938100809133
:1011800081008160809381008091800081608093E4
:1011900080008091B10084608093B1008091B000A4
:1011A00081608093B00080917A00846080937A009F
:1011B00080917A00826080937A0080917A008160C9
:1011C00080937A0080917A00806880937A001092F0
:1011D000C10010926302109262021092610210929A
:1011E00060020E9492028CE591E090935F028093EE
:1011F0005E028DE591E090935D0280935C02109217
:10120000470380914C03823018F098E09093470395
:1012100080934A0362E370E080E090E00E942A013C
:1012200060914D0382E493E00E94570368EE73E0FF
:1012300080E090E00E942A0160E382E493E00E9453
:101240005A040BE416E4C8010197F1F760E382E465
:1012500093E00E945A04C8010197F1F760E382E429
:1012600093E00E945A0483E592E00197F1F760E26F
:1012700082E493E00E945A0460914703606240E078
:1012800082E493E00E94730484E08093480340E08A
:101290006CE082E493E00E9473040E94BD0412E0BB
:1012A0001093490340E066E082E493E00E947304F7
:1012B00040E062E082E493E00E9473048BE39FE1EC
:1012C0000197F1F761E089E00E94D40061E088E0D5
:1012D0000E94D40061E087E00E94D40061E086E0D3
:1012E0000E94D40060E081E00E94D40060E089E0C8
:1012F0000E94880060E088E00E9488000E9442040A
:10130000E0918002F09181021083E0917C02F091E3
:101310007D021082E0917E02F0917F028FEC80834B
:1013200010928802E0918402F091850286E0808329
:10133000E0918202F0918302808180618083E0915C
:101340008202F0918302808188608083E091820232
:10135000F0918302808180688083E0918202F09125
:10136000830280818F7D808388E080934D0360E0DD
:1013700082E493E00E9457038BE991E00E94CE043F
:101380000E948A048EE391E00E94CE0496E0492EEA
:1013900020E0622E20E0722E32E0832E912C552424
:1013A000539480E792E00E94BC011816190684F459
:1013B00080E792E00E949A0189831A8241E050E01E
:1013C000BE016F5F7F4F89E193E00E940305E9CF83
:1013D00080911D0390911E030B9730F4809165025C
:1013E00090916602029751F469EA71E089E193E015
:1013F0000E94620580E792E00E944B0280911D03EB
:1014000090911E030A9709F0F4C069E173E0CE01E0
:1014100001960E94A50510922B039092660280927D
:101420006502CD80DE80A980BA8080E3E82E83E06B
:10143000F82E10E000E0F70184819581C816D906E6
:10144000A9F460817181A114B10409F48CC0611503
:10145000710541F4C114D10409F494C0F5018081EF
:1014600090E08DC0C5010E94B20D89C00F5F1F4F73
:10147000F6E0EF0EF11C03301105E9F69CC0F8947C
:101480008091680290916902A0916A02B0916B020A
:101490002FBF40912C0350912D0360912E0370912A
:1014A0002F03841B950BA60BB70B80319742A10528
:1014B000B10508F40BC110922C0310922D03109269
:1014C0002E0310922F03109264020E944A040E947D
:1014D0006C05FCC0029709F0F9C061E089E00E9448
:1014E000880060E088E00E9488006FE173E0CE0130
:1014F00001960E94A50565E273E0CE0107960E9461
:10150000A50580912B038D8780912C0390912D034D
:10151000A0912E03B0912F038E879F87A88BB98B44
:10152000CE0101960E94C705CE0107960E94BF0515
:10153000CE0101960E94BF0580916402882361F06C
:1015400010922C0310922D0310922E0310922F0351
:10155000109264020E944A0468EB7BE080E090E015
:101560000E942A01B4CF6115710561F0C114D10444
:1015700049F0FB01808190E0919581959109892B3B
:1015800009F074CF81E090E0909366028093650249
:1015900050922B03409EB001419E700D1124605D5E
:1015A0007C4F85E293E00E948E0562EA71E08FE154
:1015B00093E00E946205CE0101960E94BF05409112
:1015C0001D0350911E036091190370911A0380E767
:1015D00092E00E945E0142E050E067EA71E080E73D
:1015E00092E00E945E0169EA71E089E193E00E9465
:1015F000620580916502909166028130910509F043
:1016000069CF80912C0390912D03A0912E03B0916E
:101610002F032FB7892B8A2B8B2B09F030CFF8940F
:101620008091680290916902A0916A02B0916B0268
:101630002FBF80932C0390932D03A0932E03B09380
:101640002F0361E088E00E94880060E089E00E944A
:1016500088006FE173E0CE0101960E94A50565E266
:1016600073E0CE0107960E94A50580912B038D871C
:1016700080912C0390912D03A0912E03B0912F0304
:101680008E879F87A88BB98BCE0101960E94C705D4
:10169000CE0107960E94BF05CE0101960E94BF05AC
:1016A00080916402811110C061E087E00E9488008F
:1016B00060E086E00E9488006CE271E080E090E0EB
:1016C0000E942A010E944204509264026114710433
:1016D00009F467CE0E94C801882309F462CE0E94F3
:1016E00000005FCE89E193E00E94BF0585E293E0B0
:1016F0000E94BF058FE193E00E94BF058CE393E059
:101700000E94BF0586E393E00E94BF0580E393E05B
:101710000C94BF052F923F924F925F926F927F92EF
:101720008F929F92AF92BF92CF92DF92EF92FF92F1
:101730000F931F93CF93DF93CDB7DEB7CA1BDB0B9D
:101740000FB6F894DEBF0FBECDBF09942A88398842
:1017500048885F846E847D848C849B84AA84B98449
:10176000C884DF80EE80FD800C811B81AA81B98155
:10177000CE0FD11D0FB6F894DEBF0FBECDBFED0169
:101780000895EE0FFF1F0590F491E02D09940F933B
:101790001F93CF93DF938230910510F482E090E0A5
:1017A000E0915003F091510330E020E0B0E0A0E080
:1017B000309799F42115310509F44AC0281B390BDB
:1017C00024303105D8F58A819B816115710589F135
:1017D000FB0193838283FE0111C04081518102810C
:1017E000138148175907E0F04817590799F41097E3
:1017F00061F012960C93129713961C933296CF01B8
:10180000DF91CF911F910F91089500935003109392
:101810005103F4CF2115310551F04217530738F029
:10182000A901DB019A01BD01DF01F801C1CFEF0180
:10183000F9CF9093510380935003CDCFFE01E20F77
:10184000F31F819391932250310939832883D7CF95
:1018500020914E0330914F03232B41F4209102013C
:101860003091030130934F0320934E0320910001E8
:10187000309101012115310541F42DB73EB740915A
:10188000040150910501241B350BE0914E03F091AA
:101890004F03E217F307A0F42E1B3F0B281739075D
:1018A00078F0AC014E5F5F4F2417350748F04E0FBC
:1018B0005F1F50934F0340934E03819391939FCFAB
:1018C000F0E0E0E09CCFCF93DF930097E9F0FC01DC
:1018D000329713821282A0915003B0915103ED010F
:1018E00030E020E01097A1F420813181820F931F16
:1018F00020914E0330914F032817390709F061C03A
:10190000F0934F03E0934E03DF91CF910895EA01E6
:10191000CE17DF07E8F54A815B819E01411551052D
:10192000B1F7E901FB83EA8349915991C40FD51FAF
:10193000EC17FD0761F4808191810296840F951F59
:10194000E90199838883828193819B838A83F0E074
:10195000E0E012968D919C9113970097B9F52D9127
:101960003C911197CD010296820F931F20914E0357
:1019700030914F032817390739F6309751F51092F7
:10198000510310925003B0934F03A0934E03BCCF6A
:10199000D383C28340815181840F951FC817D90713
:1019A00061F44E5F5F4F88819981480F591F5183C1
:1019B00040838A819B81938382832115310509F0BD
:1019C000B0CFF0935103E09350039ECFFD01DC01B3
:1019D000C0CF13821282D7CFB0E0A0E0E2EFFCE0EC
:1019E0000C948C0B8C01009751F4CB010E94C70B17
:1019F0008C01C801CDB7DEB7E0E10C94A80BFC0167
:101A0000E60FF71F9C0122503109E217F30708F493
:101A10009DC0D901CD91DC911197C617D70798F0D9
:101A2000C530D10530F3CE0104978617970708F328
:101A3000C61BD70B2297C193D1936D937C93CF0193
:101A40000E94630CD6CF5B01AC1ABD0A4C018C0E10
:101A50009D1EA0915003B0915103512C412CF12CAB
:101A6000E12C109731F580914E0390914F0388152A
:101A7000990509F05CC04616570608F058C08091D9
:101A8000000190910101009741F48DB79EB74091FC
:101A9000040150910501841B950BE817F90708F024
:101AA00055C0F0934F03E0934E03F90171836083B7
:101AB000A0CF8D919C91119712966C9012971396CE
:101AC0007C901397A815B90559F56C0142E0C40E36
:101AD000D11CCA14DB0420F1AC014A195B09DA01FC
:101AE0001296159780F06282738251834083D901E8
:101AF0006D937C93E114F10471F0D7011396FC937C
:101B0000EE93129776CF22968C0F9D1FF901918349
:101B10008083F301EFCFF0935103E093500369CF3B
:101B20004816590608F42C017D01D3019ACFCB0148
:101B30000E94C70B7C01009749F0AE01B8010E94DA
:101B4000A90DC8010E94630C870153CF10E000E08B
:101B500050CFFB01DC0102C001900D92415050407A
:101B6000D8F70895FB01DC018D91019080190110D7
:101B7000D9F3990B0895FB01DC0101900D9200202F
:101B8000E1F7089510E0CDE5D0E004C0FE010E9429
:101B9000C10B2196CE35D107C9F7F894FFCF0000CD
:101BA00052038000000040001400540000000000B8
:101BB000FE015E018B014B02BC019A01AE010000E7
:101BC00000002803FB023F04D102F402E102D2022A
:101BD00000000000C8045E013F043E0420596F75F8
:101BE0007220494400204143434553532044454E0D
:101BF0004945442100576169742033207365636F40
:101C00006E647321002041434345535320475241A2
:101C10004E544544210020003132333435363738B4
:101C20003930003131313131313131313100303001
:101C300030303030303030300020205363616E005F
:081C40004A6F686E000D0A00F6
:107E0000112484B714BE81FFF0D085E080938100F7
:107E100082E08093C00088E18093C10086E0809377
:107E2000C20080E18093C4008EE0C9D0259A86E02C
:107E300020E33CEF91E0309385002093840096BBD3
:107E4000B09BFECF1D9AA8958150A9F7CC24DD24C4
:107E500088248394B5E0AB2EA1E19A2EF3E0BF2EE7
:107E6000A2D0813461F49FD0082FAFD0023811F036
:107E7000013811F484E001C083E08DD089C08234E0
:107E800011F484E103C0853419F485E0A6D080C0E4
:107E9000853579F488D0E82EFF2485D0082F10E0AE
:107EA000102F00270E291F29000F111F8ED06801E7
:107EB0006FC0863521F484E090D080E0DECF843638
:107EC00009F040C070D06FD0082F6DD080E0C81688
:107ED00080E7D80618F4F601B7BEE895C0E0D1E017
:107EE00062D089930C17E1F7F0E0CF16F0E7DF06D8
:107EF00018F0F601B7BEE89568D007B600FCFDCFD4
:107F0000A601A0E0B1E02C9130E011968C91119780
:107F100090E0982F8827822B932B1296FA010C0160
:107F200087BEE89511244E5F5F4FF1E0A038BF0790
:107F300051F7F601A7BEE89507B600FCFDCF97BE46
:107F4000E89526C08437B1F42ED02DD0F82E2BD052
:107F50003CD0F601EF2C8F010F5F1F4F84911BD097
:107F6000EA94F801C1F70894C11CD11CFA94CF0C13
:107F7000D11C0EC0853739F428D08EE10CD085E9AC
:107F80000AD08FE07ACF813511F488E018D01DD067
:107F900080E101D065CF982F8091C00085FFFCCF94
:107FA0009093C60008958091C00087FFFCCF809118
:107FB000C00084FD01C0A8958091C6000895E0E648
:107FC000F0E098E1908380830895EDDF803219F02E
:107FD00088E0F5DFFFCF84E1DECF1F93182FE3DFCA
:107FE0001150E9F7F2DF1F91089580E0E8DFEE27F6
:047FF000FF270994CA
:027FFE00040479
:00000001FF
