:100000000C945D000C9485000C9485000C94850084
:100010000C9485000C9485000C9485000C9485004C
:100020000C9485000C9485000C9485000C9485003C
:100030000C9485000C9485000C9485000C9485002C
:100040000C94D7030C9485000C9485000C948500C7
:100050000C9485000C9485000C9485000C9485000C
:100060000C9421040C94850000000000240027005B
:100070002A0000000000250028002B0004040404CE
:100080000404040402020202020203030303030342
:10009000010204081020408001020408102001021F
:1000A00004081020000000080002010000030407FB
:1000B0000000000000000000400511241FBECFEF2B
:1000C000D8E0DEBFCDBF11E0A0E0B1E0ECEAFDE09A
:1000D00002C005900D92AE33B107D9F722E0AEE32E
:1000E000B1E001C01D92A931B207E1F710E0CDE502
:1000F000D0E004C02197FE010E94CE06CC35D10786
:10010000C9F70E9460050C94D4060C94000090E09E
:10011000FC01EC55FF4F2491FC01E057FF4F349157
:10012000FC01E458FF4FE491EE23C9F0222339F09B
:10013000233001F1A8F4213019F1223029F1F0E047
:10014000EE0FFF1FEE58FF4FA591B4918FB7F894B3
:10015000EC91611126C030953E233C938FBF0895EA
:100160002730A9F02830C9F0243049F78091800069
:100170008F7D03C0809180008F7780938000DFCFD8
:1001800084B58F7784BDDBCF84B58F7DFBCF809125
:10019000B0008F778093B000D2CF8091B0008F7D78
:1001A000F9CF3E2BDACFCF93DF9390E0FC01E057FD
:1001B000FF4F249184589F4FFC0184918823D1F0F4
:1001C00090E0880F991FFC01E859FF4FA591B49169
:1001D000FC01EE58FF4FC591D49161110EC09FB73D
:1001E000F8948C91E22FE0958E238C932881E22362
:1001F000E8839FBFDF91CF9108958FB7F894EC917A
:10020000E22BEC938FBFF6CF3FB7F8948091FD01BE
:100210009091FE01A091FF01B091000226B5A89B2C
:1002200005C02F3F19F00196A11DB11D3FBFBA2F88
:10023000A92F982F8827BC01CD01620F711D811D48
:10024000911D42E0660F771F881F991F4A95D1F7CD
:1002500008958F929F92AF92BF92CF92DF92EF92CA
:10026000FF924B015C010E9404016B017C010E9422
:1002700004016C197D098E099F09683E7340810550
:100280009105A8F321E0821A9108A108B10888EE2F
:10029000C80E83E0D81EE11CF11C81149104A10456
:1002A000B10429F7FF90EF90DF90CF90BF90AF900F
:1002B0009F908F90089508950895AF92BF92CF9226
:1002C000DF92EF92FF920F931F93CF93DF936C0116
:1002D0007B018B01040F151FEB015E01AE18BF08F7
:1002E000C017D10759F06991D601ED91FC910190A9
:1002F000F081E02DC6010995892B79F7C501DF91C1
:10030000CF911F910F91FF90EF90DF90CF90BF9012
:10031000AF9008952091A601260F3327331F213275
:100320003105ECF42091CA01FC0190E080E024301A
:1003300069F082E00895A091A6012191AC014A578D
:100340005E4FA40FB52FB11D2C930196861798F31D
:100350008091A601680F6093A60180E0089581E076
:1003600008951092CA0181E08093CC011092CB01D4
:1003700061E082E10E94870061E083E10E948700E2
:10038000E9EBF0E080818E7F808380818D7F8083A8
:1003900088E48093B80085E48093BC000895CF93EF
:1003A000DF9391E0909385018823B9F0C091B80064
:1003B000D091BA008091BC008A7B8093BC0060E041
:1003C00082E10E94870060E083E10E9487000E9432
:1003D000B101D093BA00C093B800DF91CF910895D6
:1003E0000895E091F7018091F601E81730F4F0E00C
:1003F000E05AFE4F808190E008958FEF9FEF0895BF
:100400009091F7018091F6012FEF3FEF981748F494
:10041000E92FF0E0E05AFE4F208130E09F5F90939B
:10042000F701C90108958091F6019091F701891BA8
:10043000990B0895CF92DF92EF92FF920F931F9343
:10044000CF93DF937C01CB018A0120915F012223AE
:1004500089F0EB016B01C40ED51ECC15DD0569F0EA
:100460006991D701ED91FC910190F081E02DC701D8
:100470000995F3CF642F0E948A01C801DF91CF91C3
:100480001F910F91FF90EF90DF90CF900895CF9341
:10049000DF931F92CDB7DEB7698320915F012223DE
:1004A000F9F02091F401203258F021E030E0FC0115
:1004B0003383228390E080E00F90DF91CF91089505
:1004C0008091F501E82FF0E0E15CFE4F9981908387
:1004D0008F5F8093F5018093F40181E090E0ECCF91
:1004E00061E0CE0101960E948A01F7CFCF92DF92A0
:1004F000EF92FF920F931F93CF93DF93FC01C48180
:1005000021E020935F01C0933E011092F50110920B
:10051000F4018385682B81E092E00E944702D0912C
:10052000F401D13208F092C00E9404016B017C01F9
:100530008091CA01811165C082E08093CA0181E087
:100540008093CC018FEF8093C9011092EE01D0937C
:10055000ED01AFE3B1E0EDECF1E080E0D81385C050
:100560001092EF018091EF01CC0FC82BC093EF01E7
:100570008091CB01813009F07CC01092CB010E94A8
:1005800004016B017C018091EF018093BB0080919D
:10059000810190918201A0918301B0918401892B06
:1005A0008A2B8B2B99F00E940401009181011091FC
:1005B000820120918301309184016C197D098E099B
:1005C0009F090617170728073907E0F18091BC003B
:1005D00083FDD9CF85EC8093BC000E9404016B01A0
:1005E0007C018091CA01823009F445C08091C90123
:1005F0008F3F61F18091C901803241F18091C90141
:1006000025C08091810190918201A0918301B091D8
:100610008401892B8A2B8B2B09F48ACF0E94040139
:100620000091810110918201209183013091840118
:100630006C197D098E099F090617170728073907C6
:1006400008F076CF809180010E94CF011092F501D1
:100650001092F40110925F01DF91CF911F910F91E1
:10066000FF90EF90DF90CF9008959D9191938F5FD1
:1006700075CF85EEB0CF8091810190918201A091DC
:100680008301B0918401892B8A2B8B2B09F4A9CF8C
:100690000E94040100918101109182012091830147
:1006A000309184016C197D098E099F09061717077F
:1006B0002807390708F095CFC5CF089590E080E06E
:1006C000089560E087E00E94870060E086E00C9477
:1006D000870085ED8093BC0080918101909182011B
:1006E000A0918301B09184010796A11DB11D23E063
:1006F000B695A795979587952A95D1F72091BC0037
:1007000024FD03C01092CA010895409181015091C7
:1007100082016091830170918401452B462B472B08
:1007200069F30097A105B10541F02AE22A95F1F796
:1007300000C00197A109B109E1CF809180010C941B
:10074000CF010F931F93CF938C01C62F0E94760287
:100750006C2F6460C8010E9476026C2F6B7FC80109
:100760000E94760283EC90E00197F1F7CF911F9100
:100770000F9108950F931F93CF93DF938C01D62F82
:10078000C42F607F642B0E94A10380E1D89FB00139
:1007900011246C2BC801DF91CF911F910F910C9404
:1007A000A10341E00E94BA0381E090E008951F9206
:1007B0000F920FB60F9211242F933F938F939F9315
:1007C000AF93BF938091F9019091FA01A091FB0141
:1007D000B091FC013091F80123E0230F2D3758F53B
:1007E0000196A11DB11D2093F8018093F90190930A
:1007F000FA01A093FB01B093FC018091FD0190915F
:10080000FE01A091FF01B09100020196A11DB11D52
:100810008093FD019093FE01A093FF01B09300022D
:10082000BF91AF919F918F913F912F910F900FBEEC
:100830000F901F90189526E8230F0296A11DB11D59
:10084000D2CF1F920F920FB60F9211242F933F9386
:100850004F935F936F937F938F939F93AF93BF93C8
:10086000EF93FF938091B900887F803609F44AC0E6
:10087000F0F5883209F4A7C018F5803109F49BC05F
:10088000B8F4882309F4F9C0883009F494C0FF91C2
:10089000EF91BF91AF919F918F917F916F915F91F8
:1008A0004F913F912F910F900FBE0F901F90189571
:1008B000883109F488C0803251F78093C90114C08F
:1008C000803409F49DC040F48033B9F38833F9F6DD
:1008D0008093C90185ECB0C0803509F485C08835A6
:1008E00009F496C0883499F60E946903D0CF8839FC
:1008F00009F48CC038F5883729F050F4883611F0A7
:10090000803729F683E08093CA011092C80157C04E
:10091000883809F47BC0803919F0803809F0B7CFE6
:100920008091C801803208F071C0E091C80181E077
:100930008E0F8093C8018091BB00F0E0E855FE4F18
:1009400080833DC0803B39F0E0F4803A09F479C0FF
:10095000883A09F09CCF84E08093CA011092A701E5
:100960001092A601E091F201F091F30109958091B6
:10097000A60181110FC081E08093A601109286012B
:1009800009C0803C09F4A6CF883C09F4A3CF883B7A
:1009900009F07DCFE091A70181E08E0F8093A70140
:1009A000F0E0EA57FE4F80818093BB009091A70151
:1009B0008091A60129C08091EF018093BB0085EC56
:1009C0008093BC0064CF9091EE018091ED01981767
:1009D00058F5E091EE0181E08E0F8093EE01F0E09A
:1009E000E353FE4F8081E9CFE091EE0181E08E0F6D
:1009F0008093EE018091BB00F0E0E353FE4F8083D3
:100A00009091EE018091ED019817C8F285E8D8CF5A
:100A1000E091EE0181E08E0F8093EE018091BB00AA
:100A2000F0E0E353FE4F80838091CC0181115CCFD5
:100A300081E08093CB0184EA8093BC001092CA01CC
:100A400026CF85EC8093BC001092CA018091C8012A
:100A5000803230F4E091C801F0E0E855FE4F10829A
:100A60006091C80170E0E091F001F091F10188EA35
:100A700091E009951092C8010ACF1092C90134CFB4
:100A8000E1E0F2E01382128288EE93E0A0E0B0E0B1
:100A900084839583A683B7838CE091E091838083E0
:100AA000EDE0F2E0138212828EE191E09183808387
:100AB00080E2848380E1818782E0828713860895C3
:100AC000CF93DF93CDB7DEB728970FB6F894DEBF8C
:100AD0000FBECDBF789484B5826084BD84B581603B
:100AE00084BD85B5826085BD85B5816085BD8091F9
:100AF0006E00816080936E00109281008091810071
:100B00008260809381008091810081608093810068
:100B1000809180008160809380008091B10084602A
:100B20008093B1008091B00081608093B00080918B
:100B30007A00846080937A0080917A00826080934A
:100B40007A0080917A00816080937A0080917A00A7
:100B5000806880937A001092C1001092F701109281
:100B6000F6011092F5011092F4010E94B1018BE59B
:100B700091E09093F3018093F2018CE591E09093E2
:100B8000F1018093F00110921202809117028230DD
:100B900018F098E0909312028093150262E370E0DF
:100BA00080E090E00E942901609118028DE092E0BF
:100BB0000E94760268EE73E080E090E00E942901D6
:100BC00060E38DE092E00E94A1030BE416E4C8010B
:100BD0000197F1F760E38DE092E00E94A103C80164
:100BE0000197F1F760E38DE092E00E94A10383E5B5
:100BF00092E00197F1F760E28DE092E00E94A1039C
:100C000060911202606240E08DE092E00E94BA03BF
:100C100084E08093130240E06CE08DE092E00E945B
:100C2000BA0340E061E08DE092E00E94BA030BE37A
:100C30001FE1C8010197F1F782E08093140240E0C0
:100C400066E08DE092E00E94BA0340E062E08DE051
:100C500092E00E94BA03C8010197F1F761E08DE0CC
:100C60000E94D30061E08CE00E94D30061E087E045
:100C70000E94D30061E086E00E94D30060E081E042
:100C80000E94D30060E08DE00E94870060E08CE06D
:100C90000E9487000E94610318E01093180260E030
:100CA0008DE092E00E94760248E050E066E271E05A
:100CB0008DE092E00E945D01E0E0F1E0DE0111963E
:100CC00001900D921A95E1F780911502811164C08F
:100CD0008FEF90E0880F991F21E030E02C0F3D1F2F
:100CE000820F931FFC016081606840E08DE092E01C
:100CF0000E94BA034EE050E06FE271E08DE092E0B6
:100D00000E945D0160E177E280E090E00E942901AD
:100D100000E010E061E08CE00E94870060E08DE080
:100D20000E94870061E087E00E94870060E086E023
:100D30000E94870068EE73E080E090E00E94290145
:100D40000E94610368E873E180E090E00E9429015D
:100D500061E08DE00E94870060E08CE00E948700E7
:100D600060E087E00E94870061E086E00E948700E3
:100D700068EE73E080E090E00E9429010E94610328
:100D800068EE73E080E090E00E94290101151105F2
:100D900009F20E940000BECF81E09BCFEE0FFF1F43
:0C0DA0000590F491E02D0994F894FFCF29
:100DAC0000004000140054000000000047021A022A
:100DBC005E03F00113020002F10100000000D103F8
:100DCC005D015E035D03202048656C6C6F21002083
:0E0DDC004D6963726F64696769736F667400B6
:00000001FF
